:020000040800F2
:10000000100400209D010008FD010008F90100080E
:10001000FB010008E50100081902000800000000CB
:1000200000000000000000000000000001020008C5
:10003000E701000800000000FF01000803020008BB
:100040001B020008B7010008B7010008B70100084B
:10005000B7010008B7010008B7010008B7010008A0
:10006000B7010008B7010008B7010008B701000890
:10007000B7010008B7010008B7010008B701000880
:10008000B7010008B7010008B7010008B701000870
:10009000B7010008B7010008B7010008B701000860
:1000A000B7010008B7010008B7010008B701000850
:1000B000B7010008B7010008B7010008B701000840
:1000C000B7010008B7010008B7010008B701000830
:1000D000B7010008B7010008B7010008B701000820
:1000E000B7010008B7010008B7010008B701000810
:1000F000B7010008B7010008B7010008B701000800
:10010000000000000000000000000000B70100082F
:10011000B7010008B7010008B7010008B7010008DF
:10012000B7010008B7010008B7010008B7010008CF
:10013000B7010008B701000800000000000000003F
:10014000B7010008B7010008B7010008000000006F
:10015000000000000000000000000000000000009F
:100160000000000000000000B7010008B70100080F
:10017000B7010008000000000000000000000000BF
:1001800000000000B7010008DFF80CD000F018F8FC
:100190000048004757020008100400200648804726
:1001A00006480047FEE7FEE7FEE7FEE7FEE7FEE75C
:1001B000FEE7FEE7FEE7FEE7090200088901000806
:1001C000064C074D06E0E06840F0010394E80700A4
:1001D00098471034AC42F6D3FFF7DAFF5C02000810
:1001E0007C020008FEE770470248816802781144EB
:1001F0008160704700000020FEE7FEE7704770470F
:100200007047FFF7F1BF00000248016841F4700138
:100210000160704788ED00E0FEE700204FF4FA71BE
:10022000401C8842FCDB704702E008C8121F08C16E
:10023000002AFAD170477047002001E001C1121F67
:10024000002AFBD170474FF0E0200121C0F80011D7
:10025000C0F800127047FFF7F6FFFEE77C020008C7
:10026000000000200C00000028020008880200089E
:100270000C00002004040000380200080100000007
:08028000100000000000000066
:040000050800018965
:00000001FF
