:020000040800F2
:100000001006002045010008F7200008951D000893
:10001000F5200008B10100082D27000800000000AD
:10002000000000000000000000000000FB200008AD
:10003000B301000800000000F9200008FD200008BE
:100040005F0100085F0100085F0100085F01000810
:100050005F0100085F0100085F0100085F01000800
:100060005F0100085F0100085F0100085F010008F0
:100070005F0100085F0100085F0100085F010008E0
:100080005F0100085F0100085F0100085F010008D0
:100090005F0100085F0100085F0100085F010008C0
:1000A0005F0100085F0100085F0100085F010008B0
:1000B0005F0100085F0100085F0100085F010008A0
:1000C0005F0100085F0100085F0100085F01000890
:1000D0005F0100085F0100085F0100085F01000880
:1000E0005F0100085F0100085F0100085F01000870
:1000F0005F0100085F0100085F0100085F01000860
:100100005F0100085F0100085F0100085F0100084F
:100110005F0100085F0100085F0100085F0100083F
:100120005F0100085F0100085F0100085F0100082F
:10013000DFF80CD000F02AF80048004771270008CB
:10014000100600200648804706480047FEE7FEE705
:10015000FEE7FEE7FEE7FEE7FEE7FEE7FEE7FEE777
:100160004F21000831010008D2B201E000F8012B54
:10017000491EFBD270470022F6E710B513460A4627
:1001800004461946FFF7F0FF204610BD064C074D08
:1001900006E0E06840F0010394E807009847103457
:1001A000AC42F6D3FFF7C8FF00280008202800085B
:1001B000FEE770472DE9F84F0027DFF8BCA2DFF813
:1001C000BCB20D460446B946504514D05C4512D029
:1001D000AB4884420FD0AB4884420CD0AA4884423A
:1001E00009D0AA48844206D0A948844203D0BD2140
:1001F000A8A002F0BBFA28680104090C01D0000C89
:1002000003D0BE21A3A002F0B1FA686800281FD075
:100210000128FCD01128FAD00228F8D01228F6D0F4
:10022000AB498842F3D0AB498842F0D0AA49884212
:10023000EDD0AA498842EAD0A9498842E7D0A94925
:100240008842E4D00328E2D0BF2192A002F08EFAC7
:100250000BE1012000FA07F801EA0806464574D1CF
:10026000544514D05C4512D0854884420FD085484F
:1002700084420CD08448844209D08448844206D009
:100280008348844203D0CD2182A002F06FFA9048C7
:1002900069680A1A814259D00EDC032975D006DC40
:1002A000002953D0012919D0022969D131E011293F
:1002B00021D0122964D13AE0B2F5881F46D006DC7D
:1002C000B2F5803F42D0B2F5801F59D13EE0B2F581
:1002D000001F3BD0B2F5041F52D137E0E868022876
:1002E00007D0012805D0032803D0D52169A002F04A
:1002F0003DFAE8683EE0E868022807D0012805D00A
:10030000032803D0DC2163A002F030FAE868001D66
:1003100030E0E868022807D0012805D0032803D080
:10032000E3215CA002F022FAE868083022E0E868E5
:10033000022807D0012805D0032803D0EA2155A0C0
:1003400002F014FAE8680C3014E08DE0A86880B17F
:10035000012811D0022807D0F7214EA002F006FA9A
:10036000A86830B1012807D04FF00809C4F81480FC
:1003700006E00420814603E04FF00809C4F810802D
:10038000FF2E05D8224605E0FFE74FF00000F1E719
:1003900004F104024FEA870001D9A0F1200013689C
:1003A0004FF00F0101FA00FC23EA0C0309FA00FCEC
:1003B00043EA0C0313606868C00055D54A48826957
:1003C00042F001028261806927F0030200F001001F
:1003D0000090464813189868BA07120F9140884356
:1003E000544501D1002118E05C4501D1012114E000
:1003F00023498C4201D102210FE022498C4201D1D4
:1004000003210AE020498C4201D1042105E01F4963
:100410008C4201D1052100E0062191400143996001
:100420006868C0033248016801D5314300E0B14338
:100430000160686880032F48016801D5314300E0FE
:10044000B14301606868C0022B48016801D531439F
:1004500000E0B1430160686880022848016801D566
:10046000314300E0B14301607F1C2E683146FE40FD
:100470007FF4EFAEBDE8F88F00080140000C0140AA
:10048000001001400014014000180140001C014010
:10049000002001402E2E2F447269766572732F530F
:1004A000544D3332463178785F48414C5F4472692D
:1004B0007665722F5372632F73746D3332663178A1
:1004C000785F68616C5F6770696F2E630000000081
:1004D0000000111000002110000031100000121067
:1004E0000000221000003210001002400000014005
:1004F0000004014004040140080401400C040140D0
:1005000070B515460C00064604D14FF4EA7108A0F8
:1005100002F02CF945B1012D04D040F2D51104A010
:1005200002F024F9346170BD2004306170BD000018
:100530002E2E2F447269766572732F53544D3332C9
:10054000463178785F48414C5F4472697665722F16
:100550005372632F73746D3332663178785F6861DC
:100560006C5F6770696F2E6300000000014880684F
:10057000704700000000002070B504007ED089495B
:100580002068884207D08849884204D040F2D111BF
:1005900086A002F0EBF860689249401E884204D9B8
:1005A0004FF4E97181A002F0E1F8A0684FF48045B2
:1005B00030B1A84204D040F2D3117CA002F0D6F8AA
:1005C000E068800A04D04FF4EA7178A002F0CEF817
:1005D0002069A84207D0B0F5404F04D040F2D511B1
:1005E00072A002F0C3F8606930B1012804D04FF462
:1005F000EB716EA002F0BAF8A06930F0FE0004D0F2
:1006000040F2D71169A002F0B1F8E06930B140289A
:1006100004D04FF4EC7165A002F0A8F8206A30B164
:10062000802804D040F2D91160A002F09FF894F81D
:100630003D00002520B984F83C50204600F0DCF84D
:10064000242084F83D002068016821F00101016048
:100650002068016841F4004101602068016821F4CC
:100660000041016000F0F6FA5F4A6168914202D8E9
:100670005E4901E002E05E49884201D2012070BD7E
:100680005C492368B0FBF1F15E6826F03F060E433B
:100690005E606368934206D94FF4967359434FF4F2
:1006A0007A73B1FBF3F12368491C1E6A26F03F06FA
:1006B000314319626168914210D84900401EB0FB75
:1006C000F1F2521CC2F30B02042A01D2042023E0EF
:1006D000B0FBF1F0401CC0F30B001DE0A368EBB3CE
:1006E00001EBC10202EB0116421EB2FBF6F2521CF4
:1006F00042F4804212054AD08BB301EBC10202EBF7
:100700000111401EB0FBF1F0401CC0F30B0040F49F
:10071000804000BF40F400402168CA694CF6FF7376
:100720009A431043C861D4E90701084321680A6865
:1007300022F0C00210430860D4E903100843216886
:100740008A6848F2FF339A4310438860D4E9050170
:1007500008432168CA6822F0FF0201E010E018E0B7
:100760001043C8602068016841F001010160256400
:10077000202084F83D00256384F83E50002070BDA1
:1007800001EB4106421EB2FBF6F2521CB2E7012019
:10079000C2E701EB4101401EB0FBF1F0401CC0F389
:1007A0000B00B7E700540040005800402E2E2F44A5
:1007B0007269766572732F53544D333246317878AF
:1007C0005F48414C5F4472697665722F5372632FA4
:1007D00073746D3332663178785F68616C5F69324B
:1007E000632E63007F1A0600A086010080841E002D
:1007F00000093D0040420F0010B586B00021009175
:100800000191029103910068104988421BD1104C5C
:10081000A06940F00800A061A069694600F00800E6
:1008200004904FF440600090122001900320039048
:100830000848FFF7BFFCE06940F48000E061E06930
:1008400000F48000049006B010BD00000058004085
:1008500000100240000C01400248816802781144F7
:100860008160704700000020074810B5016841F022
:1008700010010160032000F097F8002000F006F856
:1008800000F024F8002010BD0020024070B50D4D8E
:1008900004464FF47A712878B1FBF0F00A490968F0
:1008A000B1FBF0F000F073FC48B9102C07D2002225
:1008B0002146501E00F028F800206C6070BD012019
:1008C00070BD0000000000200C0000200C4808B59E
:1008D000816941F001018161816901F001010091AB
:1008E000C16941F08051C161C06900F08050009041
:1008F0000448416821F0E06141F08071416008BD29
:10090000001002400000014070B515460C46064636
:10091000102A03D3AA2114A001F028FF102C03D31E
:10092000AB2111A001F022FF1E480068C0F3022392
:10093000C3F107022046042A00D90422191D072901
:1009400001D2002300E0DB1E012404FA02F1491E5B
:10095000014099409C40641E2C4021433046BDE834
:10096000704001F0E4BE00002E2E2F4472697665BF
:1009700072732F53544D3332463178785F48414C6F
:100980005F4472697665722F5372632F73746D338F
:1009900032663178785F68616C5F636F7274657816
:1009A0002E6300000CED00E010B5044607280BD0C4
:1009B000062C09D0052C07D0042C05D0032C03D01D
:1009C000922108A001F0D2FE154904F00702086840
:1009D0004FF6FF03184040EA0220124A1043086015
:1009E00010BD00002E2E2F447269766572732F534E
:1009F000544D3332463178785F48414C5F447269D8
:100A00007665722F5372632F73746D33326631784B
:100A1000785F68616C5F636F727465782E63000045
:100A20000CED00E00000FA052DE9F0470F46050047
:100A300078D02868C1070AD1810708D4410706D4B5
:100A4000000704D44FF44E716FA001F08FFE47B140
:100A5000012F06D0022F04D040F239316AA001F0F4
:100A600085FE774E306800F00700B84209D2306842
:100A700020F0070038433060306800F00700B842CB
:100A800077D128686F4C810729D5400703D5606866
:100A900040F4E06060602878000703D5606840F4A7
:100AA00060506060A868A0B1802812D0902810D053
:100AB000A0280ED0B0280CD0C0280AD0D02808D04A
:100AC000E02806D0F02804D040F25F314EA001F0BB
:100AD0004DFE6068A96820F0F00008436060287847
:100AE000C00737D0686868B101281CD002281DD023
:100AF00040F2663144A001F039FE6868012812D046
:100B0000022813D020688007002832DA60686968FC
:100B100020F0030008436060FFF728FD804641F2A3
:100B2000883910E025E020688003EDE72068800127
:100B3000EAE700BFFFF71AFDA0EB0801494502D91B
:100B40000320BDE8F0876068696800F00C00B0EB36
:100B5000810FEFD1306800F00700B8420BD9306840
:100B600020F0070038433060306800F00700B842DA
:100B700001D00120E5E728784FF4806640074FF464
:100B8000A0674FF4C0684FF4E06914D5E86860B11D
:100B9000B0420AD0B84208D0404506D0484504D0FB
:100BA0004FF4697118A001F0E1FD6068E96820F474
:100BB000E060084360602878000715D5286960B1B7
:100BC000B0420AD0B84208D0404506D0484504D0CB
:100BD00040F2AB310CA001F0C9FD6068296920F436
:100BE000605040EAC100606000F054F86168164A45
:100BF000C1F30311515CC8401449086014480068EF
:100C0000FFF744FE00209CE72E2E2F447269766584
:100C100072732F53544D3332463178785F48414CCC
:100C20005F4472697665722F5372632F73746D33EC
:100C300032663178785F68616C5F7263632E63003F
:100C40000020024000100240E82700080C000020AD
:100C5000040000200448054900684968044AC1F3BB
:100C60000221515CC84070470C0000200010024077
:100C7000F82700080448054900684968044AC1F398
:100C8000C221515CC84070470C0000200010024097
:100C9000F827000812A185B00FC98DE80F0014A035
:100CA000144A006804905168134801F00C03042BA7
:100CB00010D0082B0ED1C1F38343C9031DF80300E4
:100CC0000AD5516804AAC1F34041515C0A4A504315
:100CD000B0FBF1F005B0704708494843FAE700005F
:100CE00002030405060708090A0B0C0D0E0F10106D
:100CF000010200000010024000127A0000093D00CD
:100D00002DE9F84F04007DD0FA4EFB4D20684FF0DE
:100D1000010A4FF000084FF4803960B1C1070DD1CE
:100D2000810762D401076ED440076DD440F2671189
:100D3000F2A001F01BFD2078C00753D060684FF48B
:100D4000A02740B1484506D0B84204D040F26D110A
:100D5000EAA001F00BFD6868C0F38100012807D00C
:100D60006868C0F38100022809D16868C00306D50D
:100D70002868800336D560680028C4D032E06068F7
:100D8000484503D1286840F4803009E008B1B842F2
:100D90000DD0286820F480302860286820F4802056
:100DA0002860606888B1FFF7E1FB074609E0286822
:100DB00040F480202860E5E7FFF7D8FBC01B6428DB
:100DC00077D828688003F7D50CE0FFF7CFFB0746FC
:100DD00005E000BFFFF7CAFBC01B6428F0D82868F5
:100DE0008003F7D4207880074ED5206930B10128E0
:100DF00004D040F2A111C1A001F0B8FC60691F2825
:100E000008D902E096E042E07BE04FF4D171BBA04C
:100E100001F0ACFC686810F00C0F07D06868C0F3F4
:100E20008100022809D16868C00306D428688007B9
:100E300014D5206901287DD110E02069B0B1C6F831
:100E400000A0FFF793FB074605E000BFFFF78EFB0E
:100E5000C01B0228B4D828688007F7D528686169C4
:100E600020F0F80040EAC10028600DE0C6F80080DC
:100E7000FFF77CFB074604E0FFF778FBC01B022866
:100E80009ED828688007F7D42078000736D5A94F68
:100E9000A06920B3012806D04FF4F17197A001F0AA
:100EA00065FCA069D8B1C7F800A0FFF75FFB074653
:100EB00005E054E1FFF75AFBC01B02288ED8686A90
:100EC0008007F7D59C484FF4FA510068B0FBF1F069
:100ED000009000BF0098411E0091FAD20EE0C7F8C2
:100EE0000080FFF743FB074605E000BFFFF73EFB2E
:100EF000C01B0228AED8686A8007F7D42078400764
:100F00006ED5E068002740B1012806D0052804D03E
:100F100040F2112179A001F029FCE869C00008D451
:100F2000E86940F08050E861E869012700F08050EE
:100F3000009000E027E181480168C90512D40168EA
:100F400041F480710160FFF711FB834606E000BFAA
:100F5000FFF70CFBA0EB0B00642891D877480068E2
:100F6000C005F5D5E06801280AD008B1052811D0E0
:100F7000286A20F001002862286A20F0040002E0BC
:100F8000286A40F001002862E068A8B1FFF7EEFA95
:100F900083460DE0286A40F004002862F0E700BFB5
:100FA000FFF7E4FAA0EB0B0141F28830814285D8CB
:100FB000286A8007F4D50EE0FFF7D8FA834607E0E9
:100FC000FFF7D4FAA0EB0B0141F28830814291D8AF
:100FD000286A8007F4D41FB1E86920F08050E861E6
:100FE000E06900287ED0012809D0022807D040F20D
:100FF000AF2142A001F0BAFBE069002872D0686816
:10100000C0F381000228E0696DD0022805D0C6F83F
:101010006080FFF7ABFA0446A4E0206A30B148458F
:1010200004D04FF42E7135A001F0A0FB606A70B3BC
:10103000B0F5802F2BD0B0F5002F28D0B0F5402F81
:1010400025D0B0F5801F22D0B0F5A01F1FD0B0F57D
:10105000C01F1CD0B0F5E01F19D0B0F5001F16D08E
:10106000B0F5101F13D0B0F5201F10D0B0F5301F11
:101070000DD0B0F5401F0AD0B0F5501F07D0B0F525
:10108000601F04D040F2B9211CA001F06FFBC6F82C
:101090006080FFF76BFA074605E000BFFFF766FACE
:1010A000C01B02285BD828688001F7D4206A484515
:1010B0000FD1A06838B1B0F5003F04D040F2CF2185
:1010C0000EA001F053FB6868A16820F400300843CB
:1010D0006860D4E908010843696821F47411084381
:1010E000686001E051E041E0C6F860A0FFF73EFA19
:1010F00004462AE000004242001002402E2E2F44F7
:101100007269766572732F53544D33324631787855
:101110005F48414C5F4472697665722F5372632F4A
:1011200073746D3332663178785F68616C5F7263B7
:10113000632E6300800442420C00002000700040D7
:10114000FFF714FA001B022809D828688001F7D598
:101150001BE000BFFFF70AFA001B022802D9032098
:10116000BDE8F88F28688001F4D40EE00128F7D09C
:101170006868226A00F48031914204D1616A00F407
:101180007010884201D00120EAE70020E8E710B59E
:10119000401EB0F1807F01D3012010BD4FF0E0244C
:1011A00060610F21601701F0C2FA0020A0610720E2
:1011B0002061002010BD000070B50C460546006897
:1011C0003E49884207D03E49884204D040F2C3716C
:1011D0003CA001F0CBFA2068B0F5006F05D020B13B
:1011E00040F2C47137A001F0C1FA6068B0F5806FB9
:1011F00005D020B140F2C57132A001F0B7FAA06865
:1012000068B1B0F5807F0AD0B0F5007F07D0B0F5A7
:10121000407F04D040F2C6712AA001F0A7FAE0682E
:10122000FF2804D940F2C77126A001F09FFA206977
:10123000B0F5805F05D020B14FF4F96121A001F035
:1012400095FA606938B1B0F5005F04D040F2C97119
:101250001CA001F08BFAE069B0F5804F05D020B1F9
:1012600040F2CA7117A001F081FA95F83C000128FC
:1012700022D0012085F83C00E068A26820F440708C
:101280001043626820F480601043226820F40060FC
:101290001043226920F480501043626920F400500A
:1012A0001043E269002120F4804010432A68506412
:1012B00085F83C10002070BD022070BD002C01405C
:1012C000003401402E2E2F447269766572732F53BD
:1012D000544D3332463178785F48414C5F447269EF
:1012E0007665722F5372632F73746D333266317863
:1012F000785F68616C5F74696D5F65782E6300006C
:101300002DE9F05F04460068364E374FDFF8DC8089
:10131000DFF8DC90DFF8DCA00D464FF0804BB042E8
:1013200014D0B84212D0584510D040450ED0484590
:101330000CD050450AD03049884207D02F49884206
:1013400004D040F286712EA001F010FA286890B106
:10135000102810D020280ED030280CD040280AD0D9
:10136000502808D0602806D0702804D040F2877139
:1013700023A001F0FBF96868802805D020B14FF464
:10138000F1611FA001F0F2F994F83C00012827D088
:10139000012284F83C20022084F83D00216848683E
:1013A0008B6820F0700C286840EA0C0048602068C8
:1013B000B04209D0B84207D0584505D0404503D0C7
:1013C000484501D0504504D1696823F08003194392
:1013D000816084F83D20002084F83C00BDE8F09F47
:1013E0000220FBE7002C01400034014000040040D3
:1013F00000080040000C00400010004000140040B5
:101400002E2E2F447269766572732F53544D3332EA
:10141000463178785F48414C5F4472697665722F37
:101420005372632F73746D3332663178785F6861FD
:101430006C5F74696D5F65782E6300002DE9F05F65
:1014400005460068834FDFF81082DFF81092DFF85E
:1014500010A2DFF810B216460C46B8420FD0404535
:101460000DD0B0F1804F0AD0484508D0504506D085
:10147000584504D040F6C8717BA001F077F9206888
:1014800040B1022806D00A2804D040F6C97176A0DF
:1014900001F06CF96068012808D0022806D0032802
:1014A00004D040F6CA7170A001F060F9A06850B194
:1014B000042808D0082806D00C2804D040F6CB71A8
:1014C00069A001F053F9E0680F2804D940F6CC7107
:1014D00065A001F04BF995F83C0001284AD00120A5
:1014E00085F83C00EEB3042E56D02868082E79D03B
:1014F000B8420FD040450DD0B0F1804F0AD04845DA
:1015000008D0504506D0584504D041F2020156A0FB
:1015100001F02CF92868D4E90027E668016A21F473
:1015200080510162C169036A21F4407141EA0721D7
:1015300021F470474FF6FF7101EA063139434FF449
:10154000005623F4005306EA02321A43C1610262D4
:101550002868C16921F44061C1612868C169A26835
:1015600000E009E041EA0221C161002085F83C0069
:10157000BDE8F09F0220FBE7D4E90012E368286889
:1015800000F0DCFF2868816921F00C018161286886
:101590008169A268114322E02868B8420FD0404513
:1015A0000DD0B0F1804F0AD0484508D0504506D044
:1015B000584504D040F6E2712BA001F0D7F8D4E9E9
:1015C0000012E368286800F0EFFF2868816921F4C1
:1015D0004061816128688169A26841EA02218161D4
:1015E000C3E7FFE7B8420FD040450DD0B0F1804FC0
:1015F0000AD0484508D0504506D0584504D040F69A
:10160000F27119A001F0B2F82868D4E90027267B0E
:10161000016A21F480710162C169036A21F003014A
:10162000394321F0F00731074FF4007647EA1161A2
:1016300023F4007306EA02221A43C1610262286899
:10164000C16921F00C01C1612868C169A268114318
:101650008AE70000002C01400034014000040040F3
:1016600000080040000C00402E2E2F447269766561
:1016700072732F53544D3332463178785F48414C62
:101680005F4472697665722F5372632F73746D3382
:1016900032663178785F68616C5F74696D2E6300C3
:1016A00010B5040046D036492068884219D0354923
:1016B000884216D0B0F1804F13D03349884210D001
:1016C000324988420DD0324988420AD03149884295
:1016D00007D03149884204D040F292712FA001F026
:1016E00045F8A06860B110280AD0202808D040280A
:1016F00006D0602804D040F2937128A001F036F89B
:10170000206950B1B0F5807F07D0B0F5007F04D0DC
:1017100040F2947121A001F029F8A06930B180282D
:1017200004D040F295711DA001F020F894F83D001E
:1017300010B107E0012010BD002084F83C002046D5
:1017400000F048F8022084F83D00211D206800F0D8
:10175000FFFC012084F8460084F83E0084F83F0036
:1017600084F8400084F8410084F8420084F8430083
:1017700084F8440084F8450084F83D00002010BD42
:10178000002C0140003401400004004000080040EB
:10179000000C004000100040001400402E2E2F448A
:1017A0007269766572732F53544D333246317878AF
:1017B0005F48414C5F4472697665722F5372632FA4
:1017C00073746D3332663178785F68616C5F746909
:1017D0006D2E630010B586B0002100910191029139
:1017E000039102682F493048B2F1804F1AD02F4C34
:1017F000C023A24228D1CA6942F00202CA61CA6962
:1018000002F0020204928A6942F004028A61896944
:10181000009301F0040104914FEA0D01FEF7CAFCA8
:1018200006B010BDCA6942F00102CA61CA6902F07D
:10183000010204928A6942F004028A61896901F016
:10184000040104910C212AE0194CA24213D1C86969
:1018500040F00400C861C86900F004000490886981
:1018600040F0080088618869694600F0080004902B
:1018700000931048D2E7104B9A42D1D1CA6942F086
:101880000802CA61CA6902F0080204928A6942F039
:1018900004028A61896901F0040104910321009125
:1018A000BAE70000001002400008014000040040B8
:1018B00000080040000C0140000C004000B585B05D
:1018C0000021009101910291039100680B49884227
:1018D00012D10B48816941F010018161806969462C
:1018E00000F0100004904FF47070009002200190FE
:1018F00003900448FEF75EFC05B000BD00340140D3
:1019000000100240001001402DE9F04115000E4684
:1019100004460CD0042D0AD0082D08D00C2D06D07A
:101920003C2D04D040F67E714AA000F01FFF3068C5
:1019300070B110280CD020280AD0302808D05028A8
:1019400006D0402804D040F67F7142A000F00EFF80
:10195000B06830B1022804D04FF478613DA000F0A7
:1019600005FF94F83C00012812D001204749484A5D
:10197000484B494FDFF824C184F83C004FF0804EBB
:101980004DB1042D1ED0082D33D00C2D5ED147E073
:101990000220BDE8F081206888420ED090420CD031
:1019A00070450AD0984208D0B84206D0604504D0AD
:1019B00040F68A7127A000F0D9FE3146206800F079
:1019C0000DFC43E0206888420ED090420CD0704558
:1019D0000AD0984208D0B84206D0604504D040F6FC
:1019E00094711CA000F0C2FE3146206800F068FC33
:1019F0002CE0206888420ED090420CD070450AD06E
:101A0000984208D0B84206D0604504D040F69E7196
:101A100010A000F0ABFE3146206800F0C7FC15E0D6
:101A2000206888420ED090420CD070450AD098426F
:101A300008D0B84206D0604504D040F6A87105A091
:101A400000F094FE3146206800F026FD002084F866
:101A50003C009EE72E2E2F447269766572732F53D9
:101A6000544D3332463178785F48414C5F44726957
:101A70007665722F5372632F73746D3332663178CB
:101A8000785F68616C5F74696D2E6300002C0140A3
:101A9000003401400004004000080040000C0040F9
:101AA00010B5040046D036492068884219D035491F
:101AB000884216D0B0F1804F13D03349884210D0FD
:101AC000324988420DD0324988420AD03149884291
:101AD00007D03149884204D040F292212FA000F073
:101AE00045FEA06860B110280AD0202808D0402800
:101AF00006D0602804D040F2932128A000F036FEE2
:101B0000206950B1B0F5807F07D0B0F5007F04D0D8
:101B10004FF4257121A000F029FEA06930B1802882
:101B200004D040F295211DA000F020FE94F83D0065
:101B300010B107E0012010BD002084F83C002046D1
:101B400000F048F8022084F83D00211D206800F0D4
:101B5000FFFA012084F8460084F83E0084F83F0034
:101B600084F8400084F8410084F8420084F843007F
:101B700084F8440084F8450084F83D00002010BD3E
:101B8000002C0140003401400004004000080040E7
:101B9000000C004000100040001400402E2E2F4486
:101BA0007269766572732F53544D333246317878AB
:101BB0005F48414C5F4472697665722F5372632FA0
:101BC00073746D3332663178785F68616C5F746905
:101BD0006D2E630008B500680649884208D10648A2
:101BE000816941F400518161806900F400500090E6
:101BF00008BD0000003401400010024070B5040030
:101C000020D0A06933490028334A344B20681BD0C8
:101C100088420AD0904208D0984206D04FF4B6715C
:101C20002FA000F0A3FDA069F8B1A069B0F5807FF6
:101C30001BD0B0F5007F18D0B0F5407F15D040F232
:101C40006D110FE0012070BD88420ED090420CD083
:101C500098420AD03149884207D03149884204D09D
:101C600040F271111EA000F081FDA06838B1B0F5FE
:101C7000805F04D040F2731119A000F077FD94F852
:101C80003D00002520B984F83C50204600F04AF879
:101C9000242084F83D002068C16821F40051C1600F
:101CA000204600F09DFC2068016921F4904101610B
:101CB0002068416921F02A0141612068C16841F42E
:101CC0000051C1602564202084F83D0084F83E0066
:101CD000002070BD00380140004400400048004032
:101CE0002E2E2F447269766572732F53544D333202
:101CF000463178785F48414C5F4472697665722F4F
:101D00005372632F73746D3332663178785F686114
:101D10006C5F756172742E6300000000004C00401F
:101D20000050004030B585B0002400940194029426
:101D3000039400681449884224D11448816941F40D
:101D400080418161816901F480410491816941F0A0
:101D50000401816180690E4D00F0040004904FF48D
:101D600000700090022001900320039069462846ED
:101D7000FEF720FA2815CDE90004694628460294AA
:101D8000FEF718FA05B030BD0038014000100240DF
:101D900000080140FEE700002DE9F04F85B0002467
:101DA00046480094019402940394816941F0100123
:101DB0008161816901F010010491816941F0200184
:101DC0008161816901F020010491816941F0040180
:101DD0008161816901F004010491816941F0080188
:101DE00081618069DFF8D89000F0080044F2350581
:101DF0000490002229464846FEF782FBDFF8C4A083
:101E0000002233215046FEF77BFBDFF8BCB04FF4D5
:101E10008058002241465846FEF772FB00220421FA
:101E20002A48FEF76DFB4FF470500327CDE90007F9
:101E300069464846FEF7BEF900950226012503963D
:101E4000CDE9015469464846FEF7B4F948F20A0064
:101E5000CDE90004694648460294FEF7ABF94FF419
:101E60001360CDE9000769465846FEF7A3F9332011
:101E7000CDE90005CDE9024669465046FEF79AF9DC
:101E80004FF20430CDE9000769465046FEF792F95B
:101E9000CDF800800396CDE9015469465846FEF717
:101EA00089F90420CDE90005CDE9024669460748D5
:101EB000FEF780F905B0BDE8F08F00000010024089
:101EC00000100140000C01400008014000140140D6
:101ED00010B586B00024154805940494009401942C
:101EE00002944FF080410394C0E900144FF6FF7153
:101EF000C0E9024104618461FFF7D2FB049404A9A4
:101F00000A480594FFF7FCF90120CDE9004002944E
:101F10000822694605480394FFF790FA0C226946A7
:101F20000248FFF78BFA06B010BD000064000020E5
:101F300010B586B0002415480594049400940194CB
:101F4000029411490394C0E900144FF6FF71C0E9EF
:101F5000024104618461FFF7A3FB049404A90B48C8
:101F60000594FFF7CDF90120CDE90040029400224D
:101F7000694606480394FFF761FA0422694603485C
:101F8000FFF75CFA06B010BD00040040AC00002072
:101F900010B586B00024154805940494009401946B
:101FA000029411490394C0E900144FF6FF71C0E98F
:101FB000024104618461FFF773FB049404A90B4898
:101FC0000594FFF79DF90120CDE90040029400221D
:101FD000694606480394FFF731FA0422694603482C
:101FE000FFF72CFA06B010BD00080040F4000020F6
:101FF00010B586B00024154805940494009401940B
:10200000029411490394C0E900144FF6FF71C0E92E
:10201000024104618461FFF743FB049404A90B4867
:102020000594FFF76DF90120CDE9004002940022EC
:10203000694606480394FFF701FA042269460348FB
:10204000FFF7FCF906B010BD000C00403C01002079
:1020500010B592B000240F941C2168461094FEF72E
:102060008AF8202107A8FEF786F821481F49C0E911
:1020700000144FF6FF71C0E90241046144618461BC
:10208000FFF70EFD0F940FA919481094FFF738F9C8
:1020900000940194029403940494059400226946E8
:1020A00013480694FFF730FC042269461048FFF7F6
:1020B0002BFC082269460E48FFF726FC0C226946D5
:1020C0000B48FFF721FC0794089409944FF4005043
:1020D0000A94CDE90B4007A905480E94FFF76CF868
:1020E0000348FFF7EBFB12B010BD000000340140C5
:1020F00084010020FEE7704770477047FEF7ACBBD5
:1021000030B58FB028216846FEF735F814210AA8AB
:10211000FEF731F801210804CDE9001000240294F3
:1021200002250491CDE907504FF4E010099068466C
:10213000FEF7E6FD0F20CDE90A056802CDE90C4067
:1021400002210AA80E94FEF76FFC0FB030BD704755
:10215000F0B502681C4B1D4D1D4E1E4F1E4C4FF01E
:10216000804C984209D0A04207D0604505D0A842D3
:1021700003D0B04201D0B84204D122F0700E4A68B8
:1021800042EA0E02984209D0A04207D0604505D02D
:10219000A84203D0B04201D0B84203D122F4407526
:1021A000CA682A434D6922F080022A4302608A6885
:1021B000C2620A688262984201D0A04201D10969D4
:1021C000016301214161F0BD002C01400004004089
:1021D00000080040000C0040003401402DE9F047A9
:1021E0000446006A0D4620F001002062206A6768FC
:1021F000A169AE6821F07302296820F00200DFF8BF
:1022000080900643DFF87CA041EA02084C4501D0EB
:1022100054450ED1E86830B1082804D041F6412178
:1022200019A000F0A3FAE86826F00801084320F09E
:1022300004064C4501D0544519D1A869B0F5007F7A
:1022400005D020B141F64E210FA000F08FFA686949
:10225000B0F5807F05D020B141F64F210AA000F0F3
:1022600085FA27F440716869AF69084307436760DE
:10227000C4F81880686860632662BDE8F0870000D3
:10228000002C0140003401402E2E2F4472697665E7
:1022900072732F53544D3332463178785F48414C36
:1022A0005F4472697665722F5372632F73746D3356
:1022B00032663178785F68616C5F74696D2E630097
:1022C0002DE9F0470446006A0D4620F01000206218
:1022D000206A6768A1692A6821F4E64141EA022878
:1022E000A968DFF8889020F02000DFF884A040EA99
:1022F00001164C4501D054450FD1E86830B108288B
:1023000004D041F68C211BA000F030FAE96826F0D9
:10231000800040EA011020F040064C4501D05445B1
:102320001BD1A869B0F5007F05D020B141F69A21F4
:1023300010A000F01BFA6869B0F5807F05D020B1CD
:1023400041F69B210BA000F011FA696927F4406067
:1023500040EA8100A96940EA81076760C4F81880F3
:102360006868A0632662BDE8F0870000002C014089
:10237000003401402E2E2F447269766572732F53FC
:10238000544D3332463178785F48414C5F4472692E
:102390007665722F5372632F73746D3332663178A2
:1023A000785F68616C5F74696D2E63002DE9F0479A
:1023B0000446006A0D4620F480702062206A676837
:1023C000E169DFF8949021F07302296820F400702D
:1023D00041EA0208A968DFF884A040EA01264C45DA
:1023E00001D054450FD1E86830B1082804D041F637
:1023F000D7211BA000F0BAF9E96826F4006040EA92
:10240000012020F480664C4501D054451BD1A869B9
:10241000B0F5007F05D020B141F6E42110A000F016
:10242000A5F96869B0F5807F05D020B141F6E521B6
:102430000BA000F09BF9696927F4405040EA0110B5
:10244000A96940EA01176760C4F81C806868E06306
:102450002662BDE8F0870000002C014000340140F6
:102460002E2E2F447269766572732F53544D33327A
:10247000463178785F48414C5F4472697665722FC7
:102480005372632F73746D3332663178785F68618D
:102490006C5F74696D2E63002DE9F0410446006A9B
:1024A0000D4620F480502062206A6668E1692A683F
:1024B00021F4E64141EA0228A96820F4005040EAEC
:1024C00001370E48844202D00D4884420ED168691B
:1024D000B0F5807F05D020B141F6233109A000F08E
:1024E00045F9696926F4804040EA81166660C4F8BF
:1024F0001C80686820642762BDE8F081002C0140E0
:10250000003401402E2E2F447269766572732F536A
:10251000544D3332463178785F48414C5F4472699C
:102520007665722F5372632F73746D333266317810
:10253000785F68616C5F74696D2E630070B5046AC2
:1025400024F0010404628469056A124EB0420ED080
:10255000114EB0420BD0B0F1804F08D00F4EB042B8
:1025600005D00F4EB04202D00E4EB04203D124F03F
:102570000304144301E044F001041A0724F0F004BA
:1025800044EA126225F00A0301F00A01194382614C
:10259000016270BD002C0140003401400004004085
:1025A00000080040000C004030B5046A24F010041C
:1025B00004628469056A24F4407444EA022222F425
:1025C00070444FF6FF7202EA03322243A02425F042
:1025D000A00304EA011119438261016230BD0000C9
:1025E00070B5044640684049884204D940F65361BA
:1025F0003EA000F0BBF8E06838B1B0F5005F04D051
:1026000040F6546139A000F0B1F8206950B1B0F53E
:10261000806F07D0B0F5C06F04D040F6556133A08D
:1026200000F0A4F860694FF6F371084200D120B9B8
:1026300040F656612DA000F099F820680169E26823
:1026400021F44051114301612169A0680843616987
:1026500008432168CA6841F20C639A430243CA6086
:1026600020684169A26921F44071114341612E49FA
:102670002068884202D1FEF7FDFA01E0FEF7EAFA8F
:1026800000EBC00101EB0012606864218000B2FB26
:10269000F0F3B3FBF1F36FF018067343B2FBF0F500
:1026A000B2FBF0F605EB8305322303EB0515B5FB12
:1026B000F1F5B6FBF1F605F0F00505EB0615B2FBFA
:1026C000F0F6B2FBF0F0B0FBF1F06FF018025043FF
:1026D00006EB800003EB0010B0FBF1F0216800F086
:1026E0000F002844886070BD20AA44002E2E2F447D
:1026F0007269766572732F53544D33324631787850
:102700005F48414C5F4472697665722F5372632F44
:1027100073746D3332663178785F68616C5F7561B0
:1027200072742E630000000000380140FEE70907C4
:10273000090E002804DB00F1E02080F80014704747
:1027400000F00F0000F1E02080F8141D704702E057
:1027500008C8121F08C1002AFAD17047704700202C
:1027600001E001C1121F002AFBD170477047000031
:10277000FEF77AF8FFF7C4FCFFF70EFB1648154981
:10278000002401601549C0E901144FF48041C0E9FB
:10279000034144618461C4610462FDF7EDFEFFF70B
:1027A00097FBFFF7C5FBFFF7F3FBFFF721FCFFF7F4
:1027B0004FFC0C480A4901604FF4E131C0E90114B3
:1027C0000C21C460C0E904418461C461FFF716FABA
:1027D000FEE700000058004010000020A086010025
:1027E00000380140CC010020000000000000000083
:1027F00001020304060708090000000001020304A7
:102800002028000800000020100000004E270008CB
:102810003028000810000020000600005E27000895
:102820000100000010000000000000000024F4007F
:0400000508000131BD
:00000001FF
