:020000040800F2
:100000004804002045010008EB190008F318000817
:10001000E919000891020008591A000800000000C0
:10002000000000000000000000000000EF190008C0
:100030009302000800000000ED190008F119000803
:100040005F0100085F0100085F0100085F01000810
:100050005F0100085F0100085F0100085F01000800
:100060005F0100085F0100085F0100085F010008F0
:100070005F0100085F0100085F0100085F010008E0
:100080005F0100085F010008B10100085F0100087E
:100090005F0100085F0100085F0100085F010008C0
:1000A0005F0100085F0100085F0100085F010008B0
:1000B0005F0100085F0100085F0100085F010008A0
:1000C0005F0100085F0100085F0100085F01000890
:1000D0005F0100085F0100085F0100085F01000880
:1000E0005F0100085F0100085F0100085F01000870
:1000F0005F0100085F0100085F0100085F01000860
:100100005F0100085F0100085F0100085F0100084F
:100110005F0100085F0100085F0100085F0100083F
:100120005F0100085F0100085F0100085F0100082F
:10013000DFF80CD000F02AF8004800479D1A0008AC
:10014000480400200648804706480047FEE7FEE7CF
:10015000FEE7FEE7FEE7FEE7FEE7FEE7FEE7FEE777
:10016000571A000831010008D2B201E000F8012B53
:10017000491EFBD270470022F6E710B513460A4627
:1001800004461946FFF7F0FF204610BD064C074D08
:1001900006E0E06840F0010394E807009847103457
:1001A000AC42F6D3FFF7C8FFC81A0008E81A0008E7
:1001B000014800F0CBB900001400002070B50446DF
:1001C00000688168C943C90717D1816821F001011E
:1001D000816000F0F9FD05460AE000BF00F0F4FD83
:1001E000401B022804D920688068C043C00706D09D
:1001F00020688068C043C007F0D0002070BDA06AAE
:1002000040F01000A062E06A40F00100E0620120CE
:1002100070BD0000F8B500260446009600688168AD
:10022000C943C9072DD0816841F00101816016489A
:1002300016490068B0FBF1F000E0401E0090002875
:10024000FBD100F0C1FD054616E000BF00F0BCFD8B
:10025000401B022810D920688068C043C0070BD01B
:10026000A06A40F01000A062E06A40F00100E06285
:1002700084F824600120F8BD20688068C043C0076E
:10028000E4D10020F8BD00001000002040420F0023
:10029000FEE77047704770472DE9F8430026054692
:1002A00000960068734F0C46B046B8420AD07249B7
:1002B000884207D07149884204D040F2DD7170A0B5
:1002C00001F0EAFB206830B3012824D0022822D0B4
:1002D000032820D004281ED005281CD006281AD0B8
:1002E000072818D0082816D0092814D00A2812D0B8
:1002F0000B2810D00C280ED00D280CD00E280AD0B8
:100300000F2808D0102806D0112804D040F2DE7142
:100310005BA001F0C1FB6068012822D0022820D038
:1003200003281ED004281CD005281AD0062818D06F
:10033000072816D0082814D0092812D00A2810D06F
:100340000B280ED00C280CD00D280AD00E2808D06F
:100350000F2806D0102804D040F2DF7148A001F029
:100360009BFBA06890B1012810D002280ED0032872
:100370000CD004280AD0052808D0062806D0072863
:1003800004D04FF4FC613EA001F086FB95F82400F8
:10039000012812D0012085F8240060681F21072859
:1003A0000ED22B685A6B401E00EB800081408A43BE
:1003B000216881400A435A631AE00220BDE8F883AD
:1003C0002A680D280AD2136BC01F00EB8000814001
:1003D0008B43216881400B43136309E0D36A0D38D6
:1003E00000EB800081408B43216881400B43D36246
:1003F000206807212A680A280AD3D3680A3800EB44
:10040000400081408B43A16881400B43D36008E0EA
:10041000136900EB400081408B43A16881400B438E
:1004200013612068102801D011281FD12868B84214
:1004300017D18168090219D4816841F400018160F3
:100440002068102812D11C481C490068B0FBF1F04C
:1004500000EB8000400000E0401E00900028FBD12F
:1004600004E0A86A40F02000A862012685F82480F4
:100470003046A3E70024014000280140003C014031
:100480002E2E2F447269766572732F53544D33327A
:10049000463178785F48414C5F4472697665722FC7
:1004A0005372632F73746D3332663178785F68618D
:1004B0006C5F6164632E63001000002040420F00F7
:1004C00010B5054A01681268914203D100F008F89E
:1004D0000249088010BD0000140000200000002028
:1004E00010B504460068084988420AD00749884286
:1004F00007D00749884204D040F2EF6105A001F01F
:10050000CBFA2068C06C10BD0024014000280140D7
:10051000003C01402E2E2F447269766572732F5372
:10052000544D3332463178785F48414C5F447269AC
:100530007665722F5372632F73746D333266317820
:10054000785F68616C5F6164632E630010B5044678
:100550000068484988420AD04749884207D047493D
:10056000884204D04FF4E06145A001F095FA207B69
:1005700030B1012804D040F2017141A001F08CFAA1
:100580002069401E0F2804D940F202713CA001F0FE
:1005900083FA20684168890626D50168890723D532
:1005A000A16AC90603D4A16A41F40071A1628168FD
:1005B000C1F34241072910D1217B71B9416821F073
:1005C00020014160A06A20F48070A062A06AC0048B
:1005D00003D4A06A40F00100A0622046FFF770FF3C
:1005E00021686FF0120008602068416809062ED566
:1005F000016849072BD5A16AC90603D4A16A41F451
:100600000051A1628168C1F30231072909D0416814
:10061000490515D48168C1F34241072910D1217BD6
:1006200071B9416821F080014160A06A20F48050D6
:10063000A062A06AC00503D4A06A40F00100A062D5
:100640002046FFF728FE21686FF00C000860206844
:10065000416849060DD50068C0070AD0A06A40F479
:100660008030A062204600F041F921686FF001005F
:10067000086010BD0024014000280140003C0140FA
:100680002E2E2F447269766572732F53544D333278
:10069000463178785F48414C5F4472697665722FC5
:1006A0005372632F73746D3332663178785F68618B
:1006B0006C5F6164632E63002DE9F04704004FF026
:1006C00000057CD075492068754E884209D075496F
:1006D000884206D0B04204D040F2B31172A001F0BB
:1006E000DBF9606838B1B0F5006F04D04FF4DA710F
:1006F0006DA001F0D1F9A0684FF4807930B1484580
:1007000004D040F2B51168A001F0C6F9207B30B1E9
:10071000012804D04FF4DB7163A001F0BDF9E0695A
:100720004FF400284FF4402AB8B1B0F5003F14D080
:10073000B0F5C02F11D040450FD0B0F5202F0CD010
:1007400050450AD0B0F5802F07D0B0F5602F04D007
:1007500040F2B71154A001F09FF9A06800281CD006
:100760002069401E0F2804D940F2BB114EA001F0B1
:1007700093F9207D88B1012806D04FF4DE714AA09C
:1007800001F08AF9207D40B1A069401E072804D9F4
:1007900040F2BF1144A001F07FF9A06A002728B9F8
:1007A000E76284F82470204600F0A2F82046FFF7A4
:1007B00005FDA16AC90600D430B1A06A00E06BE073
:1007C00040F01000A06267E0A16A21F4885141F076
:1007D0000201A1622368E169B34202D1514500D10F
:1007E0004146267BCC4641EA460261680A43A1683D
:1007F000614509D0012907D05FF0000194F8148009
:10080000B8F1010F02D00AE04946F7E7C6B1A66A7F
:1008100046F02006A662E66A46F00106E6625E68D9
:1008200026F469460E435E60236899682C4E314079
:1008300011439960A16861450BD0012909D00CE0F2
:10084000DFF8A080A66908EB46360E4346F4006147
:10085000E5E7218A0D05A5F580152168CB6A23F40B
:1008600070032B43CB62216889681F4B194091426A
:1008700008D1E762A16A21F0020141F00101A16201
:10088000BDE8F087A06A20F0020040F01000A062EE
:10089000E06A40F00100E0620120F1E7002401403D
:1008A000003C0140002801402E2E2F4472697665DD
:1008B00072732F53544D3332463178785F48414C30
:1008C0005F4472697665722F5372632F73746D3350
:1008D00032663178785F68616C5F6164632E6300B3
:1008E000FDF7E1FF00E0FFFFFE0E1FFF7047000075
:1008F00000B585B00021009101910291039100683B
:100900001249884220D11248816941F40071816105
:10091000816901F400710491816941F010018161E4
:100920008069694600F010000490082000900320C0
:100930000190084800F0A2F800221146122000F0B1
:10094000D3FA122000F09EFA05B000BD0024014049
:10095000001002400010014070B50446006836499E
:10096000364D884209D0A84207D03549884204D084
:100970004FF4AF6133A001F08FF894F82400012800
:100980000DD0012084F824002046FFF743FC02002C
:100990004FF0000305D084F82430104670BD0220CB
:1009A00070BDA06A40F60161884340F48070A06287
:1009B00021492068091DA84218D10E6816F4702F2D
:1009C00014D0A66A46F48016A6620E68760505D590
:1009D000A66A26F4005646F48056A662A66AF60475
:1009E0000AD5E66A26F00606E66206E0A66A26F45E
:1009F0008016A6624668E9E7E36284F824306FF067
:100A0000020303602068436843F0200343602068CA
:100A10008368C3F34243072B05D1A84208D1096874
:100A200011F4702F04D0816841F480118160B4E723
:100A3000816841F4A001F9E7002401400028014049
:100A4000003C01402E2E2F447269766572732F533D
:100A5000544D3332463178785F48414C5F44726977
:100A60007665722F5372632F73746D3332663178EB
:100A7000785F68616C5F6164632E63002DE9F84FF5
:100A80000027DFF8BCA2DFF8BCB20D460446B94629
:100A9000504514D05C4512D0AB4884420FD0AB48CF
:100AA00084420CD0AA48844209D0AA48844206D085
:100AB000A948844203D0BD21A8A000F0EDFF28681A
:100AC0000104090C01D0000C03D0BE21A3A000F04A
:100AD000E3FF686800281FD00128FCD01128FAD055
:100AE0000228F8D01228F6D0AB498842F3D0AB499F
:100AF0008842F0D0AA498842EDD0AA498842EAD07B
:100B0000A9498842E7D0A9498842E4D00328E2D025
:100B1000BF2192A000F0C0FF0BE1012000FA07F80E
:100B200001EA0806464574D1544514D05C4512D0FC
:100B3000854884420FD0854884420CD08448844242
:100B400009D08448844206D08348844203D0CD2112
:100B500082A000F0A1FF904869680A1A814259D02A
:100B60000EDC032975D006DC002953D0012919D0E9
:100B7000022969D131E0112921D0122964D13AE04A
:100B8000B2F5881F46D006DCB2F5803F42D0B2F500
:100B9000801F59D13EE0B2F5001F3BD0B2F5041FD3
:100BA00052D137E0E868022807D0012805D0032891
:100BB00003D0D52169A000F06FFFE8683EE0E86847
:100BC000022807D0012805D0032803D0DC2163A028
:100BD00000F062FFE868001D30E0E868022807D0F6
:100BE000012805D0032803D0E3215CA000F054FFC6
:100BF000E868083022E0E868022807D0012805D01C
:100C0000032803D0EA2155A000F046FFE8680C3025
:100C100014E08DE0A86880B1012811D0022807D027
:100C2000F7214EA000F038FFA86830B1012807D0A6
:100C30004FF00809C4F8148006E00420814603E060
:100C40004FF00809C4F81080FF2E05D8224605E0B1
:100C5000FFE74FF00000F1E704F104024FEA8700DC
:100C600001D9A0F1200013684FF00F0101FA00FC38
:100C700023EA0C0309FA00FC43EA0C0313606868DA
:100C8000C00055D54A48826942F0010282618069FC
:100C900027F0030200F001000090464813189868FE
:100CA000BA07120F91408843544501D1002118E042
:100CB0005C4501D1012114E023498C4201D102217C
:100CC0000FE022498C4201D103210AE020498C42E5
:100CD00001D1042105E01F498C4201D1052100E02A
:100CE00006219140014399606868C0033248016859
:100CF00001D5314300E0B1430160686880032F48AB
:100D0000016801D5314300E0B14301606868C00269
:100D10002B48016801D5314300E0B14301606868A8
:100D200080022848016801D5314300E0B1430160E9
:100D30007F1C2E683146FE407FF4EFAEBDE8F88F91
:100D400000080140000C0140001001400014014067
:100D500000180140001C0140002001402E2E2F44AD
:100D60007269766572732F53544D333246317878F9
:100D70005F48414C5F4472697665722F5372632FEE
:100D800073746D3332663178785F68616C5F677059
:100D9000696F2E6300000000000011100000211098
:100DA000000031100000121000002210000032106C
:100DB0000010024000000140000401400404014012
:100DC000080401400C04014001488068704700009D
:100DD0000400002002488168027811448160704755
:100DE00004000020074810B5016841F010010160BF
:100DF000032000F0C9F8002000F006F800F024F805
:100E0000002010BD0020024070B50D4D04464FF487
:100E10007A712878B1FBF0F00A490968B1FBF0F06B
:100E200000F053FD48B9102C07D200222146501E75
:100E300000F05AF800206C6070BD012070BD000009
:100E400004000020100000200C4808B5816941F022
:100E500001018161816901F001010091C16941F0E5
:100E60008051C161C06900F0805000900448416821
:100E700021F0E06141F00071416008BD00100240C6
:100E80000000014010B5040003D5BE2107A000F00A
:100E900003FE002C09DB04F01F01012088406109DA
:100EA000890001F1E021C1F8000110BD2E2E2F4470
:100EB0007269766572732F53544D333246317878A8
:100EC0005F48414C5F4472697665722F5372632F9D
:100ED00073746D3332663178785F68616C5F636F0D
:100EE000727465782E63000070B515460C46064690
:100EF000102A03D3AA2114A000F0CEFD102C03D396
:100F0000AB2111A000F0C8FD1E480068C0F3022309
:100F1000C3F107022046042A00D90422191D07291B
:100F200001D2002300E0DB1E012404FA02F1491E75
:100F3000014099409C40641E2C4021433046BDE84E
:100F4000704000F08ABD00002E2E2F447269766535
:100F500072732F53544D3332463178785F48414C89
:100F60005F4472697665722F5372632F73746D33A9
:100F700032663178785F68616C5F636F7274657830
:100F80002E6300000CED00E010B5044607280BD0DE
:100F9000062C09D0052C07D0042C05D0032C03D037
:100FA000922108A000F078FD154904F007020868B6
:100FB0004FF6FF03184040EA0220124A104308602F
:100FC00010BD00002E2E2F447269766572732F5368
:100FD000544D3332463178785F48414C5F447269F2
:100FE0007665722F5372632F73746D333266317866
:100FF000785F68616C5F636F727465782E63000060
:101000000CED00E00000FA052DE9F8430446006805
:10101000524DC1070ED1810773D441077ED4010719
:10102000FCD4C0067BD46C214DA000F035FD2078A7
:10103000C00763D06068002660B1B0F5807F09D03A
:10104000B0F5007F06D0B0F5407F03D0742144A0F6
:1010500000F022FDE869C00008D4E86940F0805043
:10106000E861E869012600F0805000904B48016873
:10107000C90512D40168804641F480710160FFF710
:10108000A3FE074605E000BFFFF79EFEC01B6428D5
:1010900023D8D8F80000C005F6D5286A10F44070AF
:1010A00021D0A18801F4407181421CD0286A3C49BA
:1010B000012220F440700A6000220A602862C00702
:1010C00011D0FFF781FE074641F2883808E000BFE3
:1010D000FFF77AFEC11B414502D90320BDE8F88322
:1010E000286A8007F4D5286A616820F440700843B4
:1010F00028621EB1E86920F08050E86120788007FE
:1011000017D5A06878B1B0F5804F0CD0B0F5004F7E
:1011100009D0B0F5404F06D0B92101E009E00BE05D
:101120000FA000F0B9FC6868A16820F440400843B3
:1011300068602078C0060FD56069B0F5800F05D0D3
:1011400020B140F2151106A000F0A6FC68686169A4
:1011500020F48000084368600020BFE700100240D0
:101160002E2E2F447269766572732F53544D33328D
:10117000463178785F48414C5F4472697665722FDA
:101180005372632F73746D3332663178785F6861A0
:101190006C5F7263635F65782E63000000700040CF
:1011A000400442422DE9F0470F46050078D02868F8
:1011B000C1070AD1810708D4410706D4000704D427
:1011C0004FF44E716FA000F067FC47B1012F06D0BD
:1011D000022F04D040F239316AA000F05DFC774E56
:1011E000306800F00700B84209D2306820F00700EC
:1011F00038433060306800F00700B84277D1286883
:101200006F4C810729D5400703D5606840F4E06042
:1012100060602878000703D5606840F46050606023
:10122000A868A0B1802812D0902810D0A0280ED095
:10123000B0280CD0C0280AD0D02808D0E02806D08A
:10124000F02804D040F25F314EA000F025FC606829
:10125000A96820F0F000084360602878C00737D004
:10126000686868B101281CD002281DD040F26631A0
:1012700044A000F011FC6868012812D0022813D0A5
:1012800020688007002832DA6068696820F003006F
:1012900008436060FFF798FD804641F2883910E00E
:1012A00025E020688003EDE720688001EAE700BFC1
:1012B000FFF78AFDA0EB0801494502D90320BDE8EC
:1012C000F0876068696800F00C00B0EB810FEFD127
:1012D000306800F00700B8420BD9306820F00700F2
:1012E00038433060306800F00700B84201D0012078
:1012F000E5E728784FF4806640074FF4A0674FF485
:10130000C0684FF4E06914D5E86860B1B0420AD013
:10131000B84208D0404506D0484504D04FF4697122
:1013200018A000F0B9FB6068E96820F4E0600843A9
:1013300060602878000715D5286960B1B0420AD0EE
:10134000B84208D0404506D0484504D040F2AB3101
:101350000CA000F0A1FB6068296920F4605040EA0D
:10136000C100606000F034F86168164AC1F30311EF
:10137000515CC8401449086014480068FFF744FDF8
:1013800000209CE72E2E2F447269766572732F53CE
:10139000544D3332463178785F48414C5F4472692E
:1013A0007665722F5372632F73746D3332663178A2
:1013B000785F68616C5F7263632E63000020024097
:1013C00000100240B81A0008100000200800002099
:1013D00012A185B00FC98DE80F0014A0144A00684F
:1013E00004905168134801F00C03042B10D0082B13
:1013F0000ED1C1F38343C9031DF803000AD5516818
:1014000004AAC1F34041515C0A4A5043B0FBF1F0D9
:1014100005B0704708494843FAE700000203040595
:10142000060708090A0B0C0D0E0F10100102000030
:101430000010024000127A0000093D002DE9F84F2B
:1014400004007DD0FA4EFB4D20684FF0010A4FF0AA
:1014500000084FF4803960B1C1070DD1810762D413
:1014600001076ED440076DD440F26711F2A000F07E
:1014700013FB2078C00753D060684FF4A02740B119
:10148000484506D0B84204D040F26D11EAA000F001
:1014900003FB6868C0F38100012807D06868C0F3C7
:1014A0008100022809D16868C00306D52868800336
:1014B00036D560680028C4D032E06068484503D162
:1014C000286840F4803009E008B1B8420DD028689F
:1014D00020F480302860286820F48020286060682C
:1014E00088B1FFF771FC074609E0286840F48020C6
:1014F0002860E5E7FFF768FCC01B642877D82868F8
:101500008003F7D50CE0FFF75FFC074605E000BF5E
:10151000FFF75AFCC01B6428F0D828688003F7D472
:10152000207880074ED5206930B1012804D040F2E0
:10153000A111C1A000F0B0FA60691F2808D902E02B
:1015400096E042E07BE04FF4D171BBA000F0A4FA3A
:10155000686810F00C0F07D06868C0F3810002289B
:1015600009D16868C00306D42868800714D52069AB
:1015700001287DD110E02069B0B1C6F800A0FFF7C6
:1015800023FC074605E000BFFFF71EFCC01B022836
:10159000B4D828688007F7D52868616920F0F8007A
:1015A00040EAC10028600DE0C6F80080FFF70CFC9F
:1015B000074604E0FFF708FCC01B02289ED82868F5
:1015C0008007F7D42078000736D5A94FA06920B34B
:1015D000012806D04FF4F17197A000F05DFAA069E0
:1015E000D8B1C7F800A0FFF7EFFB074605E054E1CC
:1015F000FFF7EAFBC01B02288ED8686A8007F7D580
:101600009C484FF4FA510068B0FBF1F0009000BF25
:101610000098411E0091FAD20EE0C7F80080FFF753
:10162000D3FB074605E000BFFFF7CEFBC01B022837
:10163000AED8686A8007F7D4207840076ED5E06896
:10164000002740B1012806D0052804D040F211211E
:1016500079A000F021FAE869C00008D4E86940F0F8
:101660008050E861E869012700F08050009000E0B8
:1016700027E181480168C90512D4016841F48071ED
:101680000160FFF7A1FB834606E000BFFFF79CFB6C
:10169000A0EB0B00642891D877480068C005F5D509
:1016A000E06801280AD008B1052811D0286A20F086
:1016B00001002862286A20F0040002E0286A40F055
:1016C00001002862E068A8B1FFF77EFB83460DE0C9
:1016D000286A40F004002862F0E700BFFFF774FBBF
:1016E000A0EB0B0141F28830814285D8286A80073F
:1016F000F4D50EE0FFF768FB834607E0FFF764FBD5
:10170000A0EB0B0141F28830814291D8286A800712
:10171000F4D41FB1E86920F08050E861E069002846
:101720007ED0012809D0022807D040F2AF2142A084
:1017300000F0B2F9E069002872D06868C0F3810057
:101740000228E0696DD0022805D0C6F86080FFF756
:101750003BFB0446A4E0206A30B1484504D04FF476
:101760002E7135A000F098F9606A70B3B0F5802F43
:101770002BD0B0F5002F28D0B0F5402F25D0B0F5F4
:10178000801F22D0B0F5A01F1FD0B0F5C01F1CD005
:10179000B0F5E01F19D0B0F5001F16D0B0F5101F3E
:1017A00013D0B0F5201F10D0B0F5301F0DD0B0F51C
:1017B000401F0AD0B0F5501F07D0B0F5601F04D00D
:1017C00040F2B9211CA000F067F9C6F86080FFF76D
:1017D000FBFA074605E000BFFFF7F6FAC01B022838
:1017E0005BD828688001F7D4206A48450FD1A068EB
:1017F00038B1B0F5003F04D040F2CF210EA000F088
:101800004BF96868A16820F4003008436860D4E9A7
:1018100008010843696821F474110843686001E015
:1018200051E041E0C6F860A0FFF7CEFA04462AE096
:1018300000004242001002402E2E2F44726976654D
:1018400072732F53544D3332463178785F48414C90
:101850005F4472697665722F5372632F73746D33B0
:1018600032663178785F68616C5F7263632E630003
:10187000800442421000002000700040FFF7A4FAEC
:10188000001B022809D828688001F7D51BE000BF9B
:10189000FFF79AFA001B022802D90320BDE8F88F4F
:1018A00028688001F4D40EE00128F7D06868226A25
:1018B00000F48031914204D1616A00F470108842D2
:1018C00001D00120EAE70020E8E710B5401EB0F1A2
:1018D000807F01D3012010BD4FF0E02460610F2113
:1018E000601700F0BAF80020A061072020610020F6
:1018F00010BDFEE73EB50024114800940194029407
:101900000E498460016001250573047505614FF47B
:1019100060214460C161FEF7CFFE08B1FEF7BAFC5A
:101920000D20CDE90005694602940548FEF7B4FC98
:10193000002801D0FEF7AEFC3EBD000000240140AF
:101940001400002010B586B00020029003902148BA
:10195000816941F010018161816901F010010491F8
:10196000816941F020018161816901F020010491C8
:10197000816941F004018161816901F004010491F0
:10198000816941F0080181618069032400F0080049
:1019900004904FF6F770CDE9000469460E48FFF752
:1019A0006DF849F6FF70CDE9000469460B48FFF772
:1019B00065F84FF6FF70CDE9000469460848FFF767
:1019C0005DF80420CDE9000469460648FFF756F8A3
:1019D00006B010BD00100240001001400008014098
:1019E000000C014000140140FEE77047704770474B
:1019F000FFF7F0B930B595B028216846FEF7BBFB7C
:101A000014210AA8FEF7B7FB18210FA8FEF7B3FBB5
:101A100001210804CDE9001000240294022504915C
:101A2000CDE907504FF4E01009906846FFF706FD36
:101A30000F20CDE90A056802CDE90C4002210AA871
:101A40000E94FFF7AFFBA80311900F950FA8FFF7B7
:101A5000DBFA15B030BD7047FEE70907090E002814
:101A600004DB00F1E02080F80014704700F00F0064
:101A700000F1E02080F8141D704702E008C8121F32
:101A800008C1002AFAD170477047002001E001C167
:101A9000121F002AFBD1704770470000FFF7A2F920
:101AA000FFF7A8FFFFF74EFFFFF724FF0148FEF7FF
:101AB00053FFFEE7140000200000000000000000BB
:101AC0000102030406070809E81A000800000020C4
:101AD000140000007A1A0008FC1A00081400002004
:101AE000340400008A1A0008000000000100000011
:0C1AF00010000000000000000024F400C2
:0400000508000131BD
:00000001FF
