:020000040800F2
:1000000010040020A101000801020008FD01000801
:10001000FF010008E90100081D02000800000000BF
:1000200000000000000000000000000005020008C1
:10003000EB010008000000000302000807020008AE
:100040001F020008BB010008BB010008BB0100083B
:10005000BB010008BB010008BB010008BB01000890
:10006000BB010008BB010008BB010008BB01000880
:10007000BB010008BB010008BB010008BB01000870
:10008000BB010008BB010008BB010008BB01000860
:10009000BB010008BB010008BB010008BB01000850
:1000A000BB010008BB010008BB010008BB01000840
:1000B000BB010008BB010008BB010008BB01000830
:1000C000BB010008BB010008BB010008BB01000820
:1000D000BB010008BB010008BB010008BB01000810
:1000E000BB010008BB010008BB010008BB01000800
:1000F000BB010008BB010008BB010008BB010008F0
:10010000000000000000000000000000BB0100082B
:10011000BB010008BB010008BB010008BB010008CF
:10012000BB010008BB010008BB010008BB010008BF
:10013000BB010008BB010008000000000000000037
:10014000BB010008BB010008BB0100080000000063
:10015000000000000000000000000000000000009F
:100160000000000000000000BB010008BB01000807
:10017000BB010008000000000000000000000000BB
:1001800000000000BB010008DFF810D000F01AF8F2
:10019000004800475B020008AFF300801004002015
:1001A0000648804706480047FEE7FEE7FEE7FEE711
:1001B000FEE7FEE7FEE7FEE7FEE7FEE70D020008CA
:1001C00089010008064C074D06E0E06840F0010395
:1001D00094E8070098471034AC42F6D3FFF7D8FFF5
:1001E0006802000888020008FEE77047024881683C
:1001F000027811448160704700000020FEE7FEE7AE
:10020000704770477047FFF7F1BF00000248016870
:1002100041F470010160704788ED00E0FEE70020C6
:100220004FF4FA71401C8842FCDB704702E008C8BA
:10023000121F08C1002AFAD170477047002001E060
:1002400001C1121F002AFBD170474FF0E0200121AD
:10025000C0F80011C0F800127047012080F3108828
:10026000FFF7F3FFFEE7000088020008000000200F
:100270000C0000002C020008940200080C00002072
:10028000040400003C02000801000000100000000F
:04029000000000006A
:040000050800018965
:00000001FF
