:020000040800F2
:10000000100400209D0100081F100008650F000863
:100010001D100008A9020008A91000080000000037
:100020000000000000000000000000002310000895
:10003000AB02000800000000211000082510000895
:10004000B7010008B7010008B7010008B7010008B0
:10005000B7010008B7010008B7010008B7010008A0
:10006000B7010008B7010008B7010008B701000890
:10007000B7010008B7010008B7010008B701000880
:10008000B7010008B7010008B7010008B701000870
:10009000B7010008B7010008B7010008B701000860
:1000A000B7010008B7010008B7010008B701000850
:1000B000B7010008B7010008B7010008B701000840
:1000C000B7010008B7010008B7010008B701000830
:1000D000B7010008B7010008B7010008B701000820
:1000E000B7010008B7010008B7010008B701000810
:1000F000B7010008B7010008B7010008B701000800
:10010000000000000000000000000000B70100082F
:10011000B7010008B7010008B7010008B7010008DF
:10012000B7010008B7010008B7010008B7010008CF
:10013000B7010008B701000800000000000000003F
:10014000B7010008B7010008B7010008000000006F
:10015000000000000000000000000000000000009F
:100160000000000000000000B7010008B70100080F
:10017000B7010008000000000000000000000000BF
:1001800000000000B7010008DFF80CD000F07AF89A
:1001900000480047E9100008100400200648804786
:1001A00006480047FEE7FEE7FEE7FEE7FEE7FEE75C
:1001B000FEE7FEE7FEE7FEE7991000088901000868
:1001C0002DE9F05F0546002092469B46884606468C
:1001D000814640241BE0284641464746224600F01F
:1001E00020F853465A46C01A914110D3114618467A
:1001F000224600F038F82D1A67EB01084F462246D8
:100200000120002100F02FF817EB00094E41201EBD
:10021000A4F10104DFDC484631462A464346BDE8E6
:10022000F09F202A04DB203A21FA02F000217047D7
:1002300021FA02F3D040C2F120029140084319464E
:100240007047D2B201E000F8012B491EFBD2704783
:100250000022F6E710B513460A4604461946FFF792
:10026000F0FF204610BD202A04DB203A00FA02F1FC
:10027000002070479140C2F1200320FA03F3194394
:1002800090407047064C074D06E0E06840F00103DF
:1002900094E8070098471034AC42F6D3FFF778FF94
:1002A0004812000868120008FEE7704770B504465F
:1002B00000F0F0F80546601C02D0044800780444C1
:1002C00000F0E8F8401BA042FAD370BD0000002007
:1002D0002DE9FC4FDFF894A1002301250AF1040B5E
:1002E00003244FF00F0C0BF1040EB8E005FA03F6EF
:1002F00032406FD04F68012F05D0022F03D0112F4D
:1003000001D0122F17D1D0F808905F0004FA07F837
:1003100029EA08090097D1F80C8008FA07F848EA9A
:100320000908C0F808804768B7430E79C6F300167D
:100330009E403E434660C6684FEA430804FA08F709
:10034000BE4301978F6807FA08F73743C7604E68C6
:10035000022E01D0122E13D1DE0800EB8606009685
:10036000366A5F07FF0E0CFA07F926EA0906D1F88C
:10037000109009FA07F949EA0609009EC6F820908C
:100380000668019FBE430F7907F0030707FA08F7D5
:10039000374307604E68F60060D5354EB76947F0C1
:1003A0000107B761B66923F0030706F0010600965E
:1003B000304E3E44B146B6689F074FEA17780CFAB4
:1003C00008F7BE43B0F1904F05D02B4FB84204D18F
:1003D000012712E042E000270FE0284FB84201D188
:1003E00002270AE0264FB84201D1032705E0254F36
:1003F000B84201D1042700E0052707FA08F7374380
:10040000C9F80870DAF800605746D1F804809643BE
:100410005FEAC83800D516433E60DBF800605F46EF
:10042000D1F8048096435FEA883800D516433E60D1
:10043000DEF800607746D1F8048096435FEAC8286A
:1004400000D516433E60094F0C373E68D1F8048052
:1004500096435FEA882800D516433E605B1C0A6815
:1004600032FA03F67FF442AFBDE8FC8F000401408E
:10047000001002400000014000040048000800484D
:10048000000C0048001000480AB181617047816289
:10049000704700000148806870470000000000209D
:1004A0000248816802781144816070470000002092
:1004B000074810B5016841F010010160032000F009
:1004C00061F8002000F006F800F024F8002010BDCC
:1004D0000020024070B50D4D04464FF47A71287823
:1004E000B1FBF0F00A490968B1FBF0F000F026FD1D
:1004F00048B9102C07D200222146501E00F022F8E5
:1005000000206C6070BD012070BD00000000002064
:100510000C0000200A4882B0816941F0010181612C
:10052000816901F001010091C16941F08051C1610F
:10053000C06900F080500090072002B000F022B89F
:1005400000100240F0B40E4B1B680C46C3F30223AC
:10055000C3F10705042D00D90425191D072901D26F
:10056000002300E0DB1E012606FA05F1491E2140AA
:1005700099409E40761E16403143F0BC00F095BD78
:100580000CED00E0064900F0070208684FF6FF0393
:10059000184040EA0220034A1043086070470000F8
:1005A0000CED00E00000FA052DE9F84F0446006864
:1005B0000026804DC0036ED5E869C00008D4E86904
:1005C00040F08050E861E869012600F0805000901A
:1005D00079480168C90512D40168804641F48071E8
:1005E0000160FFF757FF074605E000BFFFF752FF26
:1005F000C01B642835D8D8F80000C005F6D5286A95
:1006000010F4407053D0A18801F4407181424ED063
:10061000286A4FF4803191FAA1F2B2FA82F297007F
:10062000664A4FF00108174420F44070C7F8008470
:1006300091FAA1F1B1FA81F102EB81010023C1F835
:1006400000342862C00732D0FFF724FF074641F28A
:10065000883A4FF0020907E0FFF71CFFC11B514524
:1006600002D90320BDE8F88F99FAA9F0B0FA80F01A
:1006700040F040024946B8EB521F01D12A680CE015
:1006800091FAA1F2B2FA82F242F04002B1EB521FAB
:1006900002D12A6A01E015E06A6A99FAA9F1B1FA71
:1006A00081F101F01F0108FA01F00242D4D0286A5A
:1006B000616820F44070084328621EB1E86920F0A8
:1006C0008050E8612078C00705D0286BA16820F031
:1006D0000300084328632078800705D5286BE1686C
:1006E00020F44030084328632078400705D5286B64
:1006F000216920F44020084328632078800605D52E
:10070000286BE16920F0100008432863206880030B
:1007100005D56868A16B20F48000084368602078E4
:10072000400605D5286B216A20F020000843286385
:100730002078000705D5286B616920F44010084334
:1007400028632078C00605D5286BA16920F44000F5
:10075000084328632088800505D56868E16A20F48D
:100760000000084368602078000605D5E86A616AE1
:1007700020F4F8700843E8622088C00505D5E86ACF
:10078000A16A20F478500843E8622088C00405D5A7
:10079000286B216B20F48070084328632088800434
:1007A00005D5286B616B20F4007008432863002096
:1007B00058E7000000100240007000400000424274
:1007C0002DE9F0470F46050069D04A4E306800F029
:1007D0000700B84209D2306820F007003843306083
:1007E000306800F00700B84259D12878424C8007A1
:1007F00005D56068A96820F0F0000843606028789B
:10080000C0073DD06968012001290DD0022923D0FD
:100810005FF0020393FAA3F2B2FA82F242F02002EE
:10082000520904D0226803E04FF40033F2E7626A11
:1008300093FAA3F3B3FA83F303F01F039840024241
:100840002DD0606820F0030008436060FFF722FEAF
:10085000804641F288390CE04FF00073DAE700BFC0
:10086000FFF718FEA0EB0801494502D90320BDE8B7
:10087000F0876068696800F00C00B0EB810FEFD181
:10088000306800F00700B8420BD9306820F007004C
:1008900038433060306800F00700B84201D00120D2
:1008A000E5E72878400705D56068E96820F4E0604E
:1008B000084360602878000706D56068296920F43D
:1008C000605040EAC100606000F01EF86168F022EC
:1008D00092FAA2F201F0F001B2FA82F2D140074A94
:1008E000515CC8400649086006480068FFF7F2FD01
:1008F0000020BCE70020024000100240381200082F
:100900000C00002004000020164A10B5516816485B
:1009100001F00C03042B20D0082B1ED14FF47014CF
:1009200094FAA4F401F47013B4FA84F4E3400F4C85
:10093000D26AE45C0F2393FAA3F302F00F02B3FA36
:1009400083F3DA40094B1033C9039A5C06D50023C0
:100950001946FFF735FCA0FB040110BD0448A4FBB9
:10096000000110BD0010024000127A0018120008A9
:1009700000093D002DE9F84F050071D02878FC4EA4
:10098000C0074FF0010425D070686704C0F38100F0
:10099000012807D07068C0F3810002281BD170685D
:1009A000C00318D597FAA7F0B0FA80F040F0200005
:1009B000400901D0306800E0706A97FAA7F1B1FAF7
:1009C00081F101F01F0104FA01F1084265D0686865
:1009D0000028D2D061E06868B0F5803F0BD010B13C
:1009E000B0F5A02F17D0306820F480303060306828
:1009F00020F4802002E0306840F480303060F06AFB
:100A0000A96820F00F000843F062686820B3FFF780
:100A100041FD80460AE0306840F480203060EAE71B
:100A2000FFF738FDA0EB0800642871D897FAA7F00B
:100A3000B0FA80F040F02000400901D0306800E0BA
:100A4000706A97FAA7F1B1FA81F101F01F0104FA77
:100A500001F10842E4D020E0FFF71CFD804607E0EA
:100A6000C2E000BFFFF716FDA0EB08006428DCD849
:100A700097FAA7F0B0FA80F040F02000400901D0CA
:100A8000306800E0706A97FAA7F1B1FA81F101F0DD
:100A90001F0104FA01F10842E4D12878DFF8D4827A
:100AA00080074FF0000A4FF0020730D570684FF012
:100AB000F80B10F00C0F07D07068C0F3810002280B
:100AC00027D17068C00324D497FAA7F0B0FA80F059
:100AD00040F02000400901D0306800E0706A97FAC9
:100AE000A7F1B1FA81F101F01F0104FA01F1084206
:100AF00002D02869012877D130689BFAABF220F048
:100B0000F8016869B2FA82F29040014331605AE01C
:100B100064E1286988B394FAA4F0B0FA80F048F848
:100B20002040FFF7B7FC814606E000BFFFF7B2FCAC
:100B3000A0EB090002289AD897FAA7F0B0FA80F043
:100B400040F02000400901D0306800E0706A97FA58
:100B5000A7F1B1FA81F101F01F0104FA01F1084295
:100B6000E4D030689BFAABF26969B2FA82F220F005
:100B7000F80091400843306025E0FFE794FAA4F0C4
:100B8000B0FA80F048F820A0FFF784FC814605E029
:100B9000FFF780FCA0EB09000228CCD897FAA7F059
:100BA000B0FA80F040F02000400901D0306800E049
:100BB000706A97FAA7F1B1FA81F101F01F0104FA06
:100BC00001F10842E4D1287800076CD5A869A8B3E0
:100BD00094FAA4F0B0FA80F008EB8000C0F88044EA
:100BE000FFF758FC814607E0A4E100BFFFF752FC85
:100BF000A0EB090002289ED897FAA7F0B0FA80F07F
:100C000040F06000B4EB501F01D130680BE097FA60
:100C1000A7F0B0FA80F040F06000B7EB501F01D1B0
:100C2000306A00E0706A97FAA7F1B1FA81F101F039
:100C30001F0104FA01F21042D8D034E0FFE794FA21
:100C4000A4F1B1FA81F108EB8101C1F880A4FFF7AA
:100C500021FC814606E000BFFFF71CFCA0EB090069
:100C600002289AD897FAA7F0B0FA80F040F0600016
:100C7000B4EB501F01D130680BE097FAA7F0B0FA3F
:100C800080F040F06000B7EB501F01D1306A00E007
:100C9000706A97FAA7F1B1FA81F101F01F0104FA25
:100CA00001F21042D8D12878400768D5F0694FF09A
:100CB0000009C00009D4F06940F08050F061F0698B
:100CC0004FF0010900F0805000902B480168C905E1
:100CD00012D4016841F480710160FFF7DBFB8346A9
:100CE00006E000BFFFF7D6FBA0EB0B00642875D829
:100CF00021480068C005F5D5E86801280AD008B188
:100D0000052811D0306A20F001003062306A20F0EE
:100D1000040002E0306A40F001003062E86868B325
:100D2000FFF7B8FB83460DE0306A40F00400306204
:100D3000F0E700BFFFF7AEFBA0EB0B0141F28830FC
:100D400081424BD897FAA7F0B0FA80F040F040000B
:100D5000B4EB501F01D1306813E097FAA7F0B0FA56
:100D600080F040F04000B7EB501F09D1306A08E036
:100D70000010024000004242007000400CE040E0E1
:100D8000706A97FAA7F1B1FA81F101F01F0104FA34
:100D900001F21042CED02DE0FFF77CFB834607E046
:100DA000FFF778FBA0EB0B0141F28830814215D8A8
:100DB00097FAA7F0B0FA80F040F04000B4EB501F73
:100DC00001D130680CE097FAA7F0B0FA80F040F05B
:100DD0004000B7EB501F02D1306A01E083E0706A37
:100DE00097FAA7F1B1FA81F101F01F0104FA01F2BB
:100DF0001042D5D1B9F1000F03D0F06920F0805036
:100E0000F061E86980B37168C1F38101022977D08C
:100E10004FF080714F000228504609D091FAA1F19D
:100E2000B1FA81F148F82100FFF734FB05465DE097
:100E3000894691FAA1F1B1FA81F1C24648F8210040
:100E4000FFF728FB804605E0FFF724FBA0EB080036
:100E5000022848D897FAA7F0B0FA80F040F02000B6
:100E6000400902D0306801E066E0706A97FAA7F1A5
:100E7000B1FA81F101F01F0104FA01F10842E3D156
:100E8000D5E908100843716821F4741108437060B3
:100E900099FAA9F0B0FA80F04AF82040FFF7FAFA80
:100EA000054604E0FFF7F6FA401B02281BD897FA24
:100EB000A7F0B0FA80F040F02000400901D030687F
:100EC00000E0706A97FAA7F1B1FA81F101F01F0111
:100ED00004FA01F10842E5D02EE000BFFFF7DAFA8C
:100EE000401B022802D90320BDE8F88F97FAA7F02B
:100EF000B0FA80F040F02000400902D0306801E0F4
:100F00000BE0706A97FAA7F1B1FA81F101F01F01C5
:100F100004FA01F10842E1D10EE00128E4D0706842
:100F20002A6A00F48031914204D1696A00F4701099
:100F3000884201D00120D7E70020D5E710B5401E38
:100F4000B0F1807F01D3012010BD4FF0E02460613B
:100F50000F21601700F0A9F80020A0610720206190
:100F6000002010BDFEE7000070B586B01421684671
:100F7000FFF76EF92648416941F40011416141696A
:100F800001F400110591416941F400214161416979
:100F900001F400210591416941F4800141614169F9
:100FA00001F480010591416941F4003141614169D9
:100FB00001F400310591416941F4802141614069AA
:100FC000144E00F480204FF6087505900022294643
:100FD0003046FFF759FA372000900F480024CDE93A
:100FE000010469463046FFF773F900950125CDE904
:100FF0000154694630460394FFF76AF9CDE900547D
:1010000069464FF090400294FFF762F906B070BD58
:10101000001002400010004800001210FEE7704768
:1010200070477047FFF73CBA30B59FB0282168463B
:10103000FFF70EF9142119A8FFF70AF93C210AA8B5
:10104000FFF706F9032001210090049110214FF4CD
:10105000803000240591CDE901040225CDE9075037
:10106000000109906846FFF785FC0F20CDE91905BE
:101070006802CDE91B40012119A81D94FFF7A0FBD0
:1010800004480A904004189011940AA8FFF78CFABB
:101090001FB030BD200002000248016841F4700119
:1010A0000160704788ED00E0FEE70907090E00289F
:1010B00004DB00F1E02080F80014704700F00F001E
:1010C00000F1E02080F8141D704702E008C8121FEC
:1010D00008C1002AFAD170477047002001E001C121
:1010E000121F002AFBD17047FFF7E2F9FFF79CFFC0
:1010F000FFF73AFF4FF40074464D6600A7004FF427
:1011000080584FF400594FF4804A4FF4004B0122AD
:1011100021462846FFF7B8F96420FFF7C7F80122F7
:1011200031462846FFF7B0F96420FFF7BFF80122E7
:1011300039462846FFF7A8F96420FFF7B7F80122DF
:1011400041462846FFF7A0F96420FFF7AFF80122D7
:1011500049462846FFF798F96420FFF7A7F80122CF
:1011600051462846FFF790F96420FFF79FF80122C7
:1011700059462846FFF788F96420FFF797F80122BF
:1011800011022846FFF780F94FF4FA70FFF78EF846
:10119000002221462846FFF777F96420FFF786F8FA
:1011A00000224FF480712846FFF76EF96420FFF7A4
:1011B0007DF8002259462846FFF766F96420FFF7BC
:1011C00075F8002251462846FFF75EF96420FFF7C4
:1011D0006DF8002249462846FFF756F96420FFF7CC
:1011E00065F8002241462846FFF74EF96420FFF7D4
:1011F0005DF8002239462846FFF746F96420FFF7DC
:1012000055F8002231462846FFF73EF96420FFF7E3
:101210004DF87CE7001000480203040506070809A2
:101220000A0B0C0D0E0F101001020304050607082F
:10123000090A0B0C0D0E0F1000000000000000004A
:1012400001020304060708096812000800000020D4
:1012500010000000CA1000087812000810000020DA
:1012600000040000DA100008010000001000000077
:081270000000000000127A00EA
:040000050800018965
:00000001FF
