:020000040800F2
:100000001004002089010008C5010008C101000892
:10001000C3010008AD010008E10100080000000074
:10002000000000000000000000000000C9010008FE
:10003000AF01000800000000C7010008CB01000864
:10004000A3010008A3010008A3010008A301000800
:10005000A3010008A3010008A3010008A3010008F0
:10006000A3010008A3010008A3010008A3010008E0
:10007000A3010008A3010008A3010008A3010008D0
:10008000A3010008A3010008A3010008A3010008C0
:10009000A3010008A3010008A3010008A3010008B0
:1000A000A3010008A3010008A3010008A3010008A0
:1000B000A3010008A3010008A3010008A301000890
:1000C000A3010008A3010008A3010008A301000880
:1000D000A3010008A3010008A3010008A301000870
:1000E000A3010008A3010008A3010008A301000860
:1000F000A3010008A3010008A3010008A301000850
:10010000000000000000000000000000A301000843
:10011000A3010008A3010008A3010008A30100082F
:10012000A3010008A3010008A3010008A30100081F
:10013000A3010008A3010008000000000000000067
:10014000A3010008A3010008A301000800000000AB
:10015000000000000000000000000000000000009F
:100160000000000000000000A3010008A301000837
:10017000A3010008000000000000000000000000D3
:1001800000000000A3010008064880470648004719
:10019000FEE7FEE7FEE7FEE7FEE7FEE7FEE7FEE737
:1001A000FEE7FEE7D1010008E5010008FEE7704721
:1001B0000248816802781144816070470000002085
:1001C000FEE7FEE7704770477047FFF7F1BF00009A
:1001D0000248016841F470010160704788ED00E059
:1001E000FEE700004FF025004FF0330100EB010265
:1001F000FEE7000001000000100000000000000009
:04000005080001E509
:00000001FF
