:020000040800F2
:10000000100400209D0100087D0D0008790D0008F6
:100010007B0D0008A9020008E50D000800000000A3
:10002000000000000000000000000000810D00083A
:10003000AB020008000000007F0D0008830D0008DF
:10004000B7010008B7010008B7010008B7010008B0
:10005000B7010008B7010008B7010008B7010008A0
:10006000B7010008B7010008B7010008B701000890
:10007000B7010008B7010008B7010008B701000880
:10008000B7010008B7010008B7010008B701000870
:10009000B7010008B7010008B7010008B701000860
:1000A000B7010008B7010008B7010008B701000850
:1000B000B7010008B7010008B7010008B701000840
:1000C000B7010008B7010008B7010008B701000830
:1000D000B7010008B7010008B7010008B701000820
:1000E000B7010008B7010008B7010008B701000810
:1000F000B7010008B7010008B7010008B701000800
:10010000000000000000000000000000B70100082F
:10011000B7010008B7010008B7010008B7010008DF
:10012000B7010008B7010008B7010008B7010008CF
:10013000B7010008B701000800000000000000003F
:10014000B7010008B7010008B7010008000000006F
:10015000000000000000000000000000000000009F
:100160000000000000000000B7010008B70100080F
:10017000B7010008000000000000000000000000BF
:1001800000000000B7010008DFF80CD000F07AF89A
:1001900000480047250E000810040020064880474C
:1001A00006480047FEE7FEE7FEE7FEE7FEE7FEE75C
:1001B000FEE7FEE7FEE7FEE7D50D0008890100082F
:1001C0002DE9F05F0546002092469B46884606468C
:1001D000814640241BE0284641464746224600F01F
:1001E00020F853465A46C01A914110D3114618467A
:1001F000224600F038F82D1A67EB01084F462246D8
:100200000120002100F02FF817EB00094E41201EBD
:10021000A4F10104DFDC484631462A464346BDE8E6
:10022000F09F202A04DB203A21FA02F000217047D7
:1002300021FA02F3D040C2F120029140084319464E
:100240007047D2B201E000F8012B491EFBD2704783
:100250000022F6E710B513460A4604461946FFF792
:10026000F0FF204610BD202A04DB203A00FA02F1FC
:10027000002070479140C2F1200320FA03F3194394
:1002800090407047064C074D06E0E06840F00103DF
:1002900094E8070098471034AC42F6D3FFF778FF94
:1002A000D80E0008F80E0008FEE770472DE9F04F61
:1002B000DFF8AC91002309F1040A03250AF1040BCD
:1002C00085B04FF0010C0F270BF1040EBFE000BF0B
:1002D0000CFA03F6324075D00C7904F00304012CBB
:1002E00001D0022C1BD1846800945C0005FA04F84C
:1002F0000494009C24EA08040094D1F80C80049C27
:1003000008FA04F8009C48EA0408C0F80880446829
:10031000B4430E79C6F300169E40264346600C791E
:10032000E443A4070AD0C4684FEA430805FA08F674
:10033000B4438E6806FA08F62643C6600C7904F0CA
:100340000304022C10D1DC0800EB84040294246A1C
:100350005E074FEAD66807FA08F6B4430E6906FA54
:1003600008F62643029C266204684FEA430805FA11
:1003700008F6B4430E7906F0030606FA08F626439B
:1003800006604C6814F4403F60D0364CA66946F0D5
:100390000106A661A46923F0030604F00104009499
:1003A000314C34440294A4689E074FEA167807FA49
:1003B00008F6B443B0F1904F05D02C4EB04204D1B2
:1003C000012612E042E000260FE0294EB04201D1A2
:1003D00002260AE0274EB04201D1032605E0264E50
:1003E000B04201D1042600E0052606FA08F62643AD
:1003F000029CA660D9F800604C46D1F80480964370
:100400005FEAC83800D516432660DAF80040564641
:10041000D1F8048094435FEA883800D514433460EF
:10042000DBF800405E46D1F8048094435FEAC828B8
:1004300000D514433460DEF800407646D1F80480DD
:1004400094435FEA882800D5144334605B1C0A6833
:1004500032FA03F47FF43CAF05B0BDE8F08F000042
:100460000004014000100240000001400004004868
:1004700000080048000C004800100048014880684F
:100480007047000000000020024881680278114493
:100490008160704700000020074810B5016841F0F6
:1004A00010010160032000F05FF8002000F006F862
:1004B00000F024F8002010BD0020024070B50D4D62
:1004C00004464FF47A712878B1FBF0F00A490968C4
:1004D000B1FBF0F000F03CFC48B9102C07D2002230
:1004E0002146501E00F020F800206C6070BD0120F5
:1004F00070BD0000000000200C000020094808B575
:10050000816941F001018161816901F0010100917E
:10051000C16941F08051C161C06900F08050009014
:1005200008BD000000100240F0B40E4B1B680C46E2
:10053000C3F30223C3F10705042D00D90425191DB7
:10054000072901D2002300E0DB1E012606FA05F18F
:10055000491E214099409E40761E16403143F0BC12
:1005600000F041BC0CED00E0064900F0070208680D
:100570004FF6FF03184040EA0220034A1043086088
:10058000704700000CED00E00000FA052DE9F0478F
:100590000F46050069D04A4E306800F00700B842A7
:1005A00009D2306820F0070038433060306800F02E
:1005B0000700B84259D12878424C800705D56068B9
:1005C000A96820F0F000084360602878C0073DD09B
:1005D0006968012001290DD0022923D05FF00203B0
:1005E00093FAA3F2B2FA82F242F02002520904D046
:1005F000226803E04FF40033F2E7626A93FAA3F350
:10060000B3FA83F303F01F03984002422DD06068D1
:1006100020F0030008436060FFF730FF804641F29E
:1006200088390CE04FF00073DAE700BFFFF726FFD0
:10063000A0EB0801494502D90320BDE8F0876068B6
:10064000696800F00C00B0EB810FEFD1306800F06A
:100650000700B8420BD9306820F0070038433060FB
:10066000306800F00700B84201D00120E5E72878A3
:10067000400705D56068E96820F4E06008436060E1
:100680002878000706D56068296920F4605040EAA0
:10069000C100606000F01EF86168F02292FAA2F2D8
:1006A00001F0F001B2FA82F2D140074A515CC84031
:1006B0000649086006480068FFF700FF0020BCE715
:1006C0000020024000100240C80E00080C0000206C
:1006D00004000020164A10B55168164801F00C03BA
:1006E000042B20D0082B1ED14FF4701494FAA4F4DC
:1006F00001F47013B4FA84F4E3400F4CD26AE45C62
:100700000F2393FAA3F302F00F02B3FA83F3DA4054
:10071000094B1033C9039A5C06D500231946FFF72D
:100720004FFDA0FB040110BD0448A4FB000110BD57
:100730000010024000127A00A80E000800093D00D7
:1007400030B587B002200190032003900D460020B1
:100750000C4C4FF48071029000910490606940F459
:10076000003060616069694600F4003005904FF028
:100770009040FFF79BFD606820F0E06028436060D8
:1007800007B030BD001002402DE9F84F050071D0D0
:100790002878FC4EC0074FF0010425D0706867042C
:1007A000C0F38100012807D07068C0F381000228DF
:1007B0001BD17068C00318D597FAA7F0B0FA80F083
:1007C00040F02000400901D0306800E0706A97FADC
:1007D000A7F1B1FA81F101F01F0104FA01F1084219
:1007E00065D068680028D2D061E06868B0F5803FC5
:1007F0000BD010B1B0F5A02F17D0306820F48030A6
:100800003060306820F4802002E0306840F48030AE
:100810003060F06AA96820F00F000843F062686851
:1008200020B3FFF72BFE80460AE0306840F48020BA
:100830003060EAE7FFF722FEA0EB0800642871D8D9
:1008400097FAA7F0B0FA80F040F02000400901D0FC
:10085000306800E0706A97FAA7F1B1FA81F101F00F
:100860001F0104FA01F10842E4D020E0FFF706FE80
:10087000804607E0C2E000BFFFF700FEA0EB0800E3
:100880006428DCD897FAA7F0B0FA80F040F0200096
:10089000400901D0306800E0706A97FAA7F1B1FA18
:1008A00081F101F01F0104FA01F10842E4D1287836
:1008B000DFF8D48280074FF0000A4FF0020730D5EE
:1008C00070684FF0F80B10F00C0F07D07068C0F391
:1008D0008100022827D17068C00324D497FAA7F0BA
:1008E000B0FA80F040F02000400901D0306800E00C
:1008F000706A97FAA7F1B1FA81F101F01F0104FAC9
:1009000001F1084202D02869012877D130689BFAAA
:10091000ABF220F0F8016869B2FA82F2904001432C
:1009200031605AE064E1286988B394FAA4F0B0FA1F
:1009300080F048F82040FFF7A1FD814606E000BFA7
:10094000FFF79CFDA0EB090002289AD897FAA7F0C0
:10095000B0FA80F040F02000400901D0306800E09B
:10096000706A97FAA7F1B1FA81F101F01F0104FA58
:1009700001F10842E4D030689BFAABF26969B2FA3F
:1009800082F220F0F80091400843306025E0FFE754
:1009900094FAA4F0B0FA80F048F820A0FFF76EFDBA
:1009A000814605E0FFF76AFDA0EB09000228CCD8DC
:1009B00097FAA7F0B0FA80F040F02000400901D08B
:1009C000306800E0706A97FAA7F1B1FA81F101F09E
:1009D0001F0104FA01F10842E4D1287800076CD520
:1009E000A869A8B394FAA4F0B0FA80F008EB8000EC
:1009F000C0F88044FFF742FD814607E0A4E100BF54
:100A0000FFF73CFDA0EB090002289ED897FAA7F05B
:100A1000B0FA80F040F06000B4EB501F01D13068B4
:100A20000BE097FAA7F0B0FA80F040F06000B7EB67
:100A3000501F01D1306A00E0706A97FAA7F1B1FA4D
:100A400081F101F01F0104FA01F21042D8D034E024
:100A5000FFE794FAA4F1B1FA81F108EB8101C1F842
:100A600080A4FFF70BFD814606E000BFFFF706FDFF
:100A7000A0EB090002289AD897FAA7F0B0FA80F004
:100A800040F06000B4EB501F01D130680BE097FAE2
:100A9000A7F0B0FA80F040F06000B7EB501F01D132
:100AA000306A00E0706A97FAA7F1B1FA81F101F0BB
:100AB0001F0104FA01F21042D8D12878400768D506
:100AC000F0694FF00009C00009D4F06940F080508F
:100AD000F061F0694FF0010900F0805000902B4860
:100AE0000168C90512D4016841F480710160FFF703
:100AF000C5FC834606E000BFFFF7C0FCA0EB0B007F
:100B0000642875D821480068C005F5D5E868012833
:100B10000AD008B1052811D0306A20F001003062F7
:100B2000306A20F0040002E0306A40F001003062D8
:100B3000E86868B3FFF7A2FC83460DE0306A40F036
:100B400004003062F0E700BFFFF798FCA0EB0B0158
:100B500041F2883081424BD897FAA7F0B0FA80F082
:100B600040F04000B4EB501F01D1306813E097FA19
:100B7000A7F0B0FA80F040F04000B7EB501F09D169
:100B8000306A08E00010024000004242007000405D
:100B90000CE040E0706A97FAA7F1B1FA81F101F038
:100BA0001F0104FA01F21042CED02DE0FFF766FCDF
:100BB000834607E0FFF762FCA0EB0B0141F28830AF
:100BC000814215D897FAA7F0B0FA80F040F04000C3
:100BD000B4EB501F01D130680CE097FAA7F0B0FADF
:100BE00080F040F04000B7EB501F02D1306A01E0C6
:100BF00083E0706A97FAA7F1B1FA81F101F01F0161
:100C000004FA01F21042D5D1B9F1000F03D0F06916
:100C100020F08050F061E86980B37168C1F3810110
:100C2000022977D04FF080714F000228504609D03A
:100C300091FAA1F1B1FA81F148F82100FFF71EFC09
:100C400005465DE0894691FAA1F1B1FA81F1C2460B
:100C500048F82100FFF712FC804605E0FFF70EFC84
:100C6000A0EB0800022848D897FAA7F0B0FA80F065
:100C700040F02000400902D0306801E066E0706A70
:100C800097FAA7F1B1FA81F101F01F0104FA01F11D
:100C90000842E3D1D5E908100843716821F47411C2
:100CA0000843706099FAA9F0B0FA80F04AF8204041
:100CB000FFF7E4FB054604E0FFF7E0FB401B0228DA
:100CC0001BD897FAA7F0B0FA80F040F02000400956
:100CD00001D0306800E0706A97FAA7F1B1FA81F1AB
:100CE00001F01F0104FA01F10842E5D02EE000BF37
:100CF000FFF7C4FB401B022802D90320BDE8F88F90
:100D000097FAA7F0B0FA80F040F02000400902D036
:100D1000306801E00BE0706A97FAA7F1B1FA81F14F
:100D200001F01F0104FA01F10842E1D10EE00128AF
:100D3000E4D070682A6A00F48031914204D1696A73
:100D400000F47010884201D00120D7E70020D5E7D9
:100D500010B5401EB0F1807F01D3012010BD4FF0CF
:100D6000E02460610F21601700F03DF80020A061D1
:100D700007202061002010BDFEE7FEE770477047A6
:100D80007047FFF781BB10B590B028216846FFF788
:100D90005FFA14210AA8FFF75BFA022000900120F5
:100DA000049010200024059007946846FFF7ECFC9F
:100DB0000F20CDE90A040C940D9400210AA80E948A
:100DC000FFF7E4FB00224FF0A0611046FFF7B8FCEC
:100DD00010B010BD0248016841F470010160704715
:100DE00088ED00E0FEE70907090E002804DB00F1AA
:100DF000E02080F80014704700F00F0000F1E020C0
:100E000080F8141D704702E008C8121F08C1002AAC
:100E1000FAD170477047002001E001C1121F002A7B
:100E2000FBD1704786B0FFF737FBFFF7ACFF14210B
:100E30006846FFF70DFA1948416941F400314161F4
:100E40004069694600F4003005904FF480700090CE
:100E50000220019000200290039004904FF09040F7
:100E6000FFF724FA0E49086820F4C00040F0C06083
:100E700008600B482830016841F001010160094910
:100E8000086820F4403040F4003008600548243001
:100E9000016821F00F010160FEE700000010024030
:100EA0000838024000000240020304050607080952
:100EB0000A0B0C0D0E0F10100102030405060708A3
:100EC000090A0B0C0D0E0F100000000000000000BE
:100ED0000102030406070809F80E000800000020BC
:100EE00010000000060E0008080F00081000002087
:100EF00000040000160E00080100000010000000B1
:080F00000000000000127A005D
:040000050800018965
:00000001FF
