:020000040800F2
:1000000010040020A101000801020008FD01000801
:10001000FF010008E90100082902000800000000B3
:1000200000000000000000000000000013020008B3
:10003000EB010008000000000302000815020008A0
:10004000BB010008BB010008BB010008BB010008A0
:10005000BB010008BB010008BB010008BB01000890
:10006000BB010008BB010008BB010008BB01000880
:10007000BB010008BB010008BB010008BB01000870
:10008000BB010008BB010008BB010008BB01000860
:10009000BB010008BB010008BB010008BB01000850
:1000A000BB010008BB010008BB010008BB01000840
:1000B000BB010008BB010008BB010008BB01000830
:1000C000BB010008BB010008BB010008BB01000820
:1000D000BB010008BB010008BB010008BB01000810
:1000E000BB010008BB010008BB010008BB01000800
:1000F000BB010008BB010008BB010008BB010008F0
:10010000000000000000000000000000BB0100082B
:10011000BB010008BB010008BB010008BB010008CF
:10012000BB010008BB010008BB010008BB010008BF
:10013000BB010008BB010008000000000000000037
:10014000BB010008BB010008BB0100080000000063
:10015000000000000000000000000000000000009F
:100160000000000000000000BB010008BB01000807
:10017000BB010008000000000000000000000000BB
:1001800000000000BB010008DFF810D000F01AF8F2
:100190000048004749020008AFF300801004002027
:1001A0000648804706480047FEE7FEE7FEE7FEE711
:1001B000FEE7FEE7FEE7FEE7FEE7FEE719020008BE
:1001C00089010008064C074D06E0E06840F0010395
:1001D00094E8070098471034AC42F6D3FFF7D8FFF5
:1001E0005402000874020008FEE770470248816864
:1001F000027811448160704700000020FEE7FEE7AE
:100200007047704710B500F007F8BDE81040FFF7E1
:10021000BBBF7047FFF7EABF0248016841F47001B5
:100220000160704788ED00E0FEE702E008C8121F99
:1002300008C1002AFAD170477047002001E001C1CF
:10024000121F002AFBD1704710B5FFF7DBFF00201B
:1002500010BD000074020008000000200C00000027
:100260002A020008800200080C000020040400009C
:100270003A02000801000000100000000000000029
:040000050800018965
:00000001FF
