:020000040800F2
:1000000010040020A101000801020008FD01000801
:10001000FF010008E90100082502000800000000B7
:100020000000000000000000000000000F020008B7
:10003000EB010008000000000302000811020008A4
:1000400027020008BB010008BB010008BB01000833
:10005000BB010008BB010008BB010008BB01000890
:10006000BB010008BB010008BB010008BB01000880
:10007000BB010008BB010008BB010008BB01000870
:10008000BB010008BB010008BB010008BB01000860
:10009000BB010008BB010008BB010008BB01000850
:1000A000BB010008BB010008BB010008BB01000840
:1000B000BB010008BB010008BB010008BB01000830
:1000C000BB010008BB010008BB010008BB01000820
:1000D000BB010008BB010008BB010008BB01000810
:1000E000BB010008BB010008BB010008BB01000800
:1000F000BB010008BB010008BB010008BB010008F0
:10010000000000000000000000000000BB0100082B
:10011000BB010008BB010008BB010008BB010008CF
:10012000BB010008BB010008BB010008BB010008BF
:10013000BB010008BB010008000000000000000037
:10014000BB010008BB010008BB0100080000000063
:10015000000000000000000000000000000000009F
:100160000000000000000000BB010008BB01000807
:10017000BB010008000000000000000000000000BB
:1001800000000000BB010008DFF810D000F01AF8F2
:10019000004800475D020008AFF300801004002013
:1001A0000648804706480047FEE7FEE7FEE7FEE711
:1001B000FEE7FEE7FEE7FEE7FEE7FEE715020008C2
:1001C00089010008064C074D06E0E06840F0010395
:1001D00094E8070098471034AC42F6D3FFF7D8FFF5
:1001E0006402000884020008FEE770470248816844
:1001F000027811448160704700000020FEE7FEE7AE
:1002000070477047012080F3148800F01FB87047D2
:10021000FFF7ECBF0248016841F4700101607047CC
:1002200088ED00E0FEE7002080F31488704702E0CC
:1002300008C8121F08C1002AFAD170477047002071
:1002400001E001C1121F002AFBD170474FF0E020EE
:100250000121C0F80011C0F800127047FFF7D2FF6B
:10026000FEE7000084020008000000200C000000EF
:100270002E020008900200080C0000200404000078
:100280003E02000801000000100000000000000015
:040000050800018965
:00000001FF
