:020000040800F2
:10000000100400209D010008FD010008F90100080E
:10001000FB010008E50100082102000800000000C3
:100020000000000000000000000000000B020008BB
:10003000E701000800000000FF0100080D020008B1
:1000400023020008B7010008B7010008B701000843
:10005000B7010008B7010008B7010008B7010008A0
:10006000B7010008B7010008B7010008B701000890
:10007000B7010008B7010008B7010008B701000880
:10008000B7010008B7010008B7010008B701000870
:10009000B7010008B7010008B7010008B701000860
:1000A000B7010008B7010008B7010008B701000850
:1000B000B7010008B7010008B7010008B701000840
:1000C000B7010008B7010008B7010008B701000830
:1000D000B7010008B7010008B7010008B701000820
:1000E000B7010008B7010008B7010008B701000810
:1000F000B7010008B7010008B7010008B701000800
:10010000000000000000000000000000B70100082F
:10011000B7010008B7010008B7010008B7010008DF
:10012000B7010008B7010008B7010008B7010008CF
:10013000B7010008B701000800000000000000003F
:10014000B7010008B7010008B7010008000000006F
:10015000000000000000000000000000000000009F
:100160000000000000000000B7010008B70100080F
:10017000B7010008000000000000000000000000BF
:1001800000000000B7010008DFF80CD000F018F8FC
:100190000048004759020008100400200648804724
:1001A00006480047FEE7FEE7FEE7FEE7FEE7FEE75C
:1001B000FEE7FEE7FEE7FEE71102000889010008FE
:1001C000064C074D06E0E06840F0010394E80700A4
:1001D00098471034AC42F6D3FFF7DAFF600200080C
:1001E00080020008FEE770470248816802781144E7
:1001F0008160704700000020FEE7FEE7704770470F
:10020000012080F3148800F01FB87047FFF7ECBF9F
:100210000248016841F470010160704788ED00E018
:10022000FEE7002080F31488704702E008C8121F20
:1002300008C1002AFAD170477047002001E001C1CF
:10024000121F002AFBD170474FF0E0200121C0F8B7
:100250000011C0F800127047FFF7D2FFFEE7000060
:1002600080020008000000200C0000002A020008A4
:100270008C0200080C000020040400003A02000870
:0C02800001000000100000000000000061
:040000050800018965
:00000001FF
